S01200006374726C5F776865656C2E73726563E9
S3150800400000500020755E00084957000855570008FB
S315080040105B57000861570008675700080000000052
S315080040200000000000000000000000006D570008B6
S3150800403079570008000000008557000891570008C6
S31508004040BD5E0008BD5E0008BD5E0008BD5E0008D6
S31508004050BD5E0008BD5E0008BD5E0008BD5E0008C6
S31508004060BD5E0008BD5E0008BD5E00089D570008DD
S31508004070BD5E0008BD5E0008BD5E0008BD5E0008A6
S31508004080BD5E0008BD5E0008BD5E0008BD5E000896
S31508004090BD5E0008BD5E0008BD5E0008BD5E000886
S315080040A0BD5E0008B1570008BD5E0008BD5E000889
S315080040B0BD5E0008BD5E0008BD5E0008BD5E000866
S315080040C0BD5E0008BD5E0008BD5E0008BD5E000856
S315080040D0BD5E0008BD5E0008BD5E0008BD5E000846
S315080040E0BD5E0008BD5E0008BD5E00080000000059
S315080040F000000000000000000000000000000000B2
S3110800410000000000000000005FF808F155
S3150800411010B5054C237833B9044B13B10448AFF3F3
S3150800412000800123237010BD8000002000000000DD
S31508004130A491000808B5034B1BB103490348AFF324
S31508004140008008BD0000000084000020A49100083B
S31508004150034613F8012B002AFBD1181A01387047B9
S3150800416081F0004102E000BF83F0004330B54FEA1A
S3150800417041044FEA430594EA050F08BF90EA020F87
S315080041801FBF54EA000C55EA020C7FEA645C7FEA1A
S31508004190655C00F0E2804FEA5454D4EB5555B8BF3D
S315080041A06D420CDD2C4480EA020281EA030382EAAE
S315080041B0000083EA010180EA020281EA0303362D40
S315080041C088BF30BD11F0004F4FEA01314FF4801C13
S315080041D04CEA113102D0404261EB410113F0004F25
S315080041E04FEA03334CEA133302D0524263EB4303DC
S315080041F094EA050F00F0A780A4F10104D5F1200E7A
S315080042000DDB02FA0EFC22FA05F2801841F10001D4
S3150800421003FA0EF2801843FA05F359410EE0A5F1A8
S3150800422020050EF1200E012A03FA0EFC28BF4CF0D9
S31508004230020C43FA05F3C01851EBE37101F000458F
S3150800424007D54FF0000EDCF1000C7EEB00006EEB9C
S315080042500101B1F5801F1BD3B1F5001F0CD3490826
S315080042605FEA30004FEA3C0C04F101044FEA44527D
S3150800427012F5800F80F09A80BCF1004F08BF5FEA04
S31508004280500C50F1000041EB045141EA050130BDE4
S315080042905FEA4C0C404141EB010111F4801FA4F187
S315080042A00104E9D191F0000F04BF01460020B1FADC
S315080042B081F308BF2033A3F10B03B3F120020CDA14
S315080042C00C3208DD02F1140CC2F10C0201FA0CF0F2
S315080042D021FA02F10CE002F11402D8BFC2F1200C57
S315080042E001FA02F120FA0CFCDCBF41EA0C0190400D
S315080042F0E41AA2BF01EB0451294330BD6FEA040456
S315080043001F3C1CDA0C340EDC04F11404C4F1200240
S3150800431020FA04F001FA02F340EA030021FA04F352
S3150800432045EA030130BDC4F10C04C4F1200220FAA9
S3150800433002F001FA04F340EA0300294630BD21FAE7
S3150800434004F0294630BD94F0000F83F4801306BFAD
S3150800435081F480110134013D4EE77FEA645C18BFA1
S315080043607FEA655C29D094EA050F08BF90EA020F38
S3150800437005D054EA000C04BF1946104630BD91EA30
S31508004380030F1EBF0021002030BD5FEA545C05D133
S315080043904000494128BF41F0004130BD14F5800472
S315080043A03CBF01F5801130BD01F0004545F0FE41E6
S315080043B041F470014FF0000030BD7FEA645C1ABF1B
S315080043C0194610467FEA655C1CBF0B46024650EA52
S315080043D0013406BF52EA033591EA030F41F400217E
S315080043E030BD00BF90F0000F04BF0021704730B504
S315080043F04FF4806404F132044FF000054FF00001D9
S3150800440050E700BF90F0000F04BF0021704730B599
S315080044104FF4806404F1320410F0004548BF40426E
S315080044204FF000013EE700BF42004FEAE2014FEAC3
S3150800443031014FEA02701FBF12F07F4393F07F4F9E
S3150800444081F06051704732F07F4208BF704793F0A1
S315080044507F4F04BF41F40021704730B54FF46074B4
S3150800446001F0004521F000411CE700BF50EA0102B7
S3150800447008BF704730B54FF000050AE050EA010260
S3150800448008BF704730B511F0004502D5404261EBD0
S3150800449041014FF4806404F132045FEA915C3FF411
S315080044A0D8AE4FF003025FEADC0C18BF03325FEAAE
S315080044B0DC0C18BF033202EBDC02C2F1200300FA5F
S315080044C003FC20FA02F001FA03FE40EA0E0021FA84
S315080044D002F11444BDE600BF70B54FF0FF0C4CF472
S315080044E0E06C1CEA11541DBF1CEA135594EA0C0F24
S315080044F095EA0C0F00F0DEF82C4481EA030621EA5F
S315080045004C5123EA4C5350EA013518BF52EA033599
S3150800451041F4801143F4801338D0A0FB02CE4FF04B
S315080045200005E1FB02E506F00042E0FB03E54FF07B
S315080045300006E1FB03569CF0000F18BF4EF0010E73
S31508004540A4F1FF04B6F5007F64F5407404D25FEA6F
S315080045504E0E6D4146EB060642EAC62141EA555122
S315080045604FEAC52040EA5E504FEACE2EB4F1FD0C64
S3150800457088BFBCF5E06F1ED8BEF1004F08BF5FEAE2
S31508004580500E50F1000041EB045170BD06F0004694
S3150800459046EA010140EA020081EA0301B4EB5C0441
S315080045A0C2BFD4EB0C0541EA045170BD41F4801139
S315080045B04FF0000E013C00F3AB8014F1360FDEBF5E
S315080045C0002001F0004170BDC4F10004203C35DA3A
S315080045D00C341BDC04F11404C4F1200500FA05F3BD
S315080045E020FA04F001FA05F240EA020001F000425E
S315080045F021F0004110EBD37021FA04F642EB0601D4
S315080046005EEA430E08BF20EAD37070BDC4F10C04FD
S31508004610C4F1200500FA04F320FA05F001FA04F2C1
S3150800462040EA020001F0004110EBD37041F10001AD
S315080046305EEA430E08BF20EAD37070BDC4F12005B8
S3150800464000FA05F24EEA020E20FA04F301FA05F220
S3150800465043EA020321FA04F001F0004121FA04F2C8
S3150800466020EA020000EBD3705EEA430E08BF20EA98
S31508004670D37070BD94F0000F0FD101F000464000D2
S3150800468041EB010111F4801F08BF013CF7D041EA54
S31508004690060195F0000F18BF704703F00046520058
S315080046A043EB030313F4801F08BF013DF7D043EA29
S315080046B00603704794EA0C0F0CEA135518BF95EADF
S315080046C00C0F0CD050EA410618BF52EA4306D1D166
S315080046D081EA030101F000414FF0000070BD50EA85
S315080046E0410606BF1046194652EA430619D094EA0F
S315080046F00C0F02D150EA013613D195EA0C0F05D1F9
S3150800470052EA03361CBF104619460AD181EA03014C
S3150800471001F0004141F0FE4141F470014FF0000004
S3150800472070BD41F0FE4141F4780170BD70B54FF09F
S31508004730FF0C4CF4E06C1CEA11541DBF1CEA13551F
S3150800474094EA0C0F95EA0C0F00F0A7F8A4EB050401
S3150800475081EA030E52EA03354FEA013100F08880F8
S315080047604FEA03334FF0805545EA131343EA1263C1
S315080047704FEA022245EA111545EA10654FEA002676
S315080047800EF000419D4208BF964244F1FD0404F52F
S31508004790407402D25B084FEA3202B61A65EB03058B
S315080047A05B084FEA32024FF480104FF4002CB6EB48
S315080047B0020E75EB030E22BFB61A754640EA0C00C8
S315080047C05B084FEA3202B6EB020E75EB030E22BF08
S315080047D0B61A754640EA5C005B084FEA3202B6EB49
S315080047E0020E75EB030E22BFB61A754640EA9C0008
S315080047F05B084FEA3202B6EB020E75EB030E22BFD8
S31508004800B61A754640EADC0055EA060E18D04FEA95
S31508004810051545EA16754FEA06164FEAC30343EA35
S3150800482052734FEAC2025FEA1C1CC0D111F4801F02
S315080048300BD141EA00014FF000004FF0004CB6E7FB
S3150800484011F4801F04BF01430020B4F1FD0C88BF9A
S31508004850BCF5E06F3FF6AFAEB5EB030C04BFB6EBA5
S31508004860020C5FEA500C50F1000041EB045170BD98
S315080048700EF0004E4EEA113114EB5C04C2BFD4EBC5
S315080048800C0541EA045170BD41F480114FF0000E49
S31508004890013C90E645EA060E8DE60CEA135594EAC5
S315080048A00C0F08BF95EA0C0F3FF43BAF94EA0C0FC8
S315080048B00AD150EA01347FF434AF95EA0C0F7FF43D
S315080048C025AF104619462CE795EA0C0F06D152EA91
S315080048D003353FF4FDAE1046194622E750EA410675
S315080048E018BF52EA43067FF4C5AE50EA41047FF486
S315080048F00DAF52EA43057FF4EBAE12E74FF0FF3CEB
S3150800490006E000BF4FF0010C02E000BF4FF0010CBB
S315080049104DF804CD4FEA410C7FEA6C5C4FEA430C34
S3150800492018BF7FEA6C5C1BD001B050EA410C0CBF83
S3150800493052EA430C91EA030F02BF90EA020F0020E5
S31508004940704710F1000F91EA030F58BF994208BF4C
S3150800495090422CBFD8176FEAE37040F00100704709
S315080049604FEA410C7FEA6C5C02D150EA013C07D160
S315080049704FEA430C7FEA6C5CD6D152EA033CD3D0AB
S315080049805DF8040B704700BF8446104662468C46A5
S315080049901946634600E000BF01B5FFF7B7FF0028D8
S315080049A048BF10F1000F01BD4DF808EDFFF7F4FF01
S315080049B00CBF012000205DF808FB00BF4DF808ED8C
S315080049C0FFF7EAFF34BF012000205DF808FB00BFAF
S315080049D04DF808EDFFF7E0FF94BF012000205DF8D1
S315080049E008FB00BF4DF808EDFFF7CEFF94BF012086
S315080049F000205DF808FB00BF4DF808EDFFF7C4FF7F
S31508004A0034BF012000205DF808FB00BF4FEA4102D1
S31508004A1012F5001215D211D56FF47873B3EB625202
S31508004A2012D94FEAC12343F0004343EA505311F029
S31508004A30004F23FA02F018BF404270474FF00000BB
S31508004A40704750EA013005D111F0004008BF6FF0F9
S31508004A50004070474FF00000704700BF80B584B033
S31508004A6000AF3B1D00221A605A609A60184B194A1B
S31508004A701A60174B00229A60154B00221A73144BC2
S31508004A8000221A75124B4FF46022DA61104B00228D
S31508004A905A600F4B01221A610D4801F091FA03463C
S31508004AA0002B01D000F0A0FA01237B600123BB6034
S31508004AB00023FB603B1D1946054801F059FB0346D8
S31508004AC0002B01D000F090FA00BF1037BD4680BD1C
S31508004AD0BC0000200024014080B588B000AF786093
S31508004AE007F1100300221A605A609A60DA607B6840
S31508004AF01B68284A934249D1274B9B69264A43F4A7
S31508004B0000739361244B9B6903F40073FB60FB6895
S31508004B10214B9B69204A43F0040393611E4B9B6912
S31508004B2003F00403BB60BB683E233B6103237B6140
S31508004B3007F110031946194801F0D6FE184B194A11
S31508004B401A60174B00225A60154B00229A60144BC4
S31508004B508022DA60124B4FF480721A61104B4FF4C0
S31508004B6080625A610E4B00229A610D4B0022DA616F
S31508004B700B4801F059FD0346002B01D000F034FA2A
S31508004B807B68074A1A62064A7B68536200BF203769
S31508004B90BD4680BD002401400010024000080140C7
S31508004BA0EC0000200800024080B500AF064B074A1B
S31508004BB01A60054801F01BFD0346002B01D000F0E2
S31508004BC013FA00BF80BD00BF30010020003002404C
S31508004BD080B485B000AF78607B681B68094A934249
S31508004BE00BD1094B5B69084A43F040035361064BF6
S31508004BF05B6903F04003FB60FB6800BF1437BD46E2
S31508004C0080BC7047003002400010024080B582B078
S31508004C1000AF0C4B5B690B4A43F001035361094B28
S31508004C205B6903F001037B607B68002200210B208F
S31508004C3001F0A7FC0B2001F0C0FC00BF0837BD46F9
S31508004C4080BD00BF0010024080B582B000AF094B9E
S31508004C501B687B6001F04AF94FF000631B683B60F4
S31508004C603B6883F308887B68984700BF0837BD46CA
S31508004C7080BD00BF0400000880B588B000AF07F10A
S31508004C80100300221A605A609A60DA60404B9B69EA
S31508004C903F4A43F0100393613D4B9B6903F01003B1
S31508004CA0FB60FB683A4B9B69394A43F020039361E2
S31508004CB0374B9B6903F02003BB60BB68344B9B6989
S31508004CC0334A43F004039361314B9B6903F00403B1
S31508004CD07B607B682E4B9B692D4A43F008039361E2
S31508004CE02B4B9B6903F008033B603B6801224FF49A
S31508004CF00051284801F052FF00224FF4705126480F
S31508004D0001F04CFF4FF400533B6101237B61002304
S31508004D10BB610223FB6107F1100319461D4801F028
S31508004D20E3FD47F601133B6103237B6107F110039B
S31508004D3019461A4801F0D8FD48F231333B6103237E
S31508004D407B6107F110031946134801F0CDFD44F2C3
S31508004D5006033B6100237B610023BB6107F1100357
S31508004D6019460D4801F0C0FD4FF470533B6101230D
S31508004D707B610023BB610223FB6107F1100319461F
S31508004D80054801F0B1FD00BF2037BD4680BD00BF14
S31508004D900010024000100140000C014000080140CC
S31508004DA0B0B584B000AF01F08BF800F0C1F8FFF79A
S31508004DB063FFFFF72BFF00F0BBFDFFF74FFE00F088
S31508004DC0E3FFFFF7F1FE00F061FD00F031FE00F0B1
S31508004DD083FE4B4802F0F7FB00214A4802F04AFCE2
S31508004DE00421484802F046FC0021474802F002FD2B
S31508004DF00421454802F0FEFC0021444802F0FAFC72
S31508004E000421424802F0F6FC01F0D0F8F860FB688D
S31508004E103F4AA2FB03239B0903F00103002B06D09C
S31508004E2000224FF400513B4801F0B8FE05E001228C
S31508004E304FF40051374801F0B1FE394664230A227F
S31508004E40354803F0A1FB3B78732B27D0732B04DC82
S31508004E50422B07D0622B05D02BE0772B0CD0782B72
S31508004E6013D026E04FF47A731C222C492A4803F003
S31508004E70F2FAFFF7E9FE1CE04FF00002284B4FF06C
S31508004E800000274900F044F913E01BA3D3E90023E7
S31508004E9019A1D1E9000100F03BF90AE04FF0000240
S31508004EA04FF000034FF000004FF0000100F030F91A
S31508004EB000BF1C4B18CB18462146FFF7A7FD054631
S31508004EC0194B18CB18462146FFF7A0FD034638466E
S31508004ED02A46164903F054FD3B461846FFF738F9AB
S31508004EE003469AB239464FF47A730B4803F0B3FA7D
S31508004EF08AE700BFAFF300800000000000408FC0C3
S31508004F002802002068020020E8010020A8010020ED
S31508004F101F85EB5100100140A8020020BC91000833
S31508004F2000408F407001002068010020DC910008D5
S31508004F3080B594B000AF07F128032822002118464F
S31508004F4003F016FD07F1140300221A605A609A60EE
S31508004F50DA601A613B1D00221A605A609A60DA60AC
S31508004F600123BB624FF48033FB6200233B630123BA
S31508004F70BB6302237B644FF48033BB644FF4E013B6
S31508004F80FB6407F12803184601F020FE0346002BB0
S31508004F9001D000F029F80F237B610223BB610023AF
S31508004FA0FB614FF480633B6200237B6207F11403C5
S31508004FB00221184602F08AF80346002B01D000F0B9
S31508004FC013F802237B604FF40043FB603B1D184631
S31508004FD002F018FA0346002B01D000F005F800BFCE
S31508004FE05037BD4680BD000080B500AF00224FF4A3
S31508004FF00051024801F0D2FDFEE700BF0010014053
S3150800500080B582B000AF78607B68002B10DD012286
S315080050104FF480611B4801F0C1FD00224FF4006186
S31508005020184801F0BBFD4FF080427B68536324E0CB
S315080050307B68002B11DA00224FF48061114801F0D9
S31508005040ADFD01224FF400610E4801F0A7FD7B6813
S315080050505A424FF080435A630FE000224FF48061B2
S31508005060084801F09BFD00224FF40061054801F055
S3150800507095FD4FF0804300225A6300BF0837BD46AE
S3150800508080BD00BF000C014080B582B000AF7860DB
S315080050907B68002B10DD01224FF480511B4801F07C
S315080050A07DFD00224FF40051184801F077FD4FF0BE
S315080050B080427B68936324E07B68002B11DA002228
S315080050C04FF48051114801F069FD01224FF4005157
S315080050D00E4801F063FD7B685A424FF080439A639D
S315080050E00FE000224FF48051084801F057FD0022D6
S315080050F04FF40051054801F051FD4FF0804300225E
S315080051009A6300BF0837BD4680BD00BF000C01404A
S3150800511090B484B000AFC7E90201C7E90023074A83
S31508005120D7E90234C2E90034054AD7E90034C2E9AE
S31508005130003400BF1037BD4690BC704750010020B0
S315080051408001002000000000F0B585B000AF002304
S31508005150FB600023BB60AC4B5B6A1846FFF752F94D
S3150800516003460C46A94AC2E90034A94B5B6A1846AD
S31508005170FFF748F903460C46A64AC2E90034A24B93
S3150800518000225A62A24B00225A62A04BD3E90001C0
S315080051909BA3D3E90023FFF7C9FA03460C469E4AA8
S315080051A0C2E900349B4BD3E9000195A3D3E9002358
S315080051B0FFF7BCFA03460C46984AC2E90034934BFB
S315080051C0D3E90001964B18CB1A462346FEF7CEFFC5
S315080051D003460C46924AC2E900348E4BD3E90001D5
S315080051E0904B18CB1A462346FEF7C0FF03460C46DB
S315080051F08C4AC2E90034884BD3E900018A4B18CBA4
S315080052001A462346FEF7B0FF03460C4618462146C3
S315080052107BA3D3E90023FFF789FA03460C46184611
S315080052202146FFF7F3FB0346FB607C4BD3E90001FD
S315080052307E4B18CB1A462346FEF796FF03460C46C6
S31508005240184621466EA3D3E90023FFF76FFA0346F3
S315080052500C4618462146FFF7D9FB0346BB606E4B42
S3150800526018CB714AC2E900346C4B18CB6F4AC2E9B5
S3150800527000346F4BD3E90001674B18CB1A46234617
S31508005280FEF772FF03460C466A4AC2E90034694BC8
S31508005290D3E900015AA3D3E90023FFF71DF9034612
S315080052A00C4618462146644B18CB1A462346FEF789
S315080052B05DFF03460C46604AC2E900345E4BD3E9FB
S315080052C000015E4B18CB1A462346FFF705F903463D
S315080052D00C461D462646574BD3E90001584B18CBBA
S315080052E01A462346FFF7F8F803460C461A4623469D
S315080052F028463146FEF73AFF03460C461D46264623
S31508005300F868FFF77FF84F4B18CB1A462346FFF786
S31508005310E3F803460C461A46234628463146FEF766
S3150800532025FF03460C4618462146474B18CB1A4616
S315080053302346FFF7D1F803460C4618462146FFF7E1
S3150800534065FB03467B603A4BD3E90001324B18CB29
S315080053501A462346FEF708FF03460C46354AC2E9B5
S315080053600034344BD3E9000125A3D3E90023FFF722
S31508005370B3F803460C46184621462F4B18CB1A4657
S315080053802346FEF7F3FE03460C462B4AC2E90034D1
S31508005390294BD3E90001294B18CB1A462346FFF7B8
S315080053A09BF803460C461D462646224BD3E90001C8
S315080053B0234B18CB1A462346FFF78EF803460C46AE
S315080053C01A46234628463146FEF7D0FE03460C46C3
S315080053D01D462646F868FFF715F81A4B18CB1A46E5
S315080053E02346FFF779F803460C461A46234628460D
S315080053F03146FEF7BBFE034628E000BFAFF3008048
S315080054009A9999999999A93F000400409801002012
S3150800541000080040400100207001002068010020BB
S3150800542090010020A001002048010020580100201A
S31508005430500100206001002088010020A000002003
S3150800544000000020A8000020080000200C4618468E
S315080054502146974B18CB1A462346FFF73DF80346D5
S315080054600C4618462146FFF7D1FA03467B60914B56
S31508005470D3E90001904B18CB1A462346FEF774FE73
S3150800548003460C468D4AC2E900348C4BD3E9000129
S315080054908B4B18CB1A462346FEF768FE03460C4686
S315080054A0874AC2E90034864BD3E90001854B18CBFD
S315080054B01A462346FFF710F803460C461D462646AD
S315080054C07E4BD3E90001804B18CB1A462346FFF7DB
S315080054D003F803460C461A46234628463146FEF785
S315080054E045FE03460C461D462646B868FEF78AFF63
S315080054F0764B18CB1A462346FEF7EEFF03460C46B4
S315080055001A46234628463146FEF730FE03460C4621
S3150800551018462146664B18CB1A462346FEF7DCFF8B
S3150800552003460C4618462146FFF770FA03463B60C9
S31508005530604BD3E90001604B18CB1A462346FEF7A9
S3150800554013FE03460C465D4AC2E900345B4BD3E9B9
S3150800555000015B4B18CB1A462346FEF707FE0346A7
S315080055600C46574AC2E90034554BD3E90001554B5E
S3150800557018CB1A462346FEF7AFFF03460C461D46D0
S3150800558026464E4BD3E900014F4B18CB1A46234605
S31508005590FEF7A2FF03460C461A462346284631461E
S315080055A0FEF7E4FD03460C461D462646B868FEF798
S315080055B029FF464B18CB1A462346FEF78DFF0346AE
S315080055C00C461A46234628463146FEF7CFFD0346C3
S315080055D00C4618462146364B18CB1A462346FEF784
S315080055E07BFF03460C4618462146FFF70FFA03468B
S315080055F03B60374BD3E900014FF000024FF0000340
S31508005600FFF7D2F90346002B1DD0324BD3E9000130
S315080056104FF000024FF00003FFF7C6F90346002BD0
S3150800562011D02D4A4FF000034FF00004C2E90034B0
S315080056302A4A4FF000034FF00004C2E90034002064
S31508005640FFF7DEFC02E07868FFF7DAFC194BD3E9CE
S3150800565000014FF000024FF00003FFF7A5F90346DB
S31508005660002B1DD0144BD3E900014FF000024FF078
S315080056700003FFF799F90346002B11D0184A4FF09B
S3150800568000034FF00004C2E900340D4A4FF000034E
S315080056904FF00004C2E900340020FFF7F5FC02E0F1
S315080056A03868FFF7F1FC00BF1437BD46F0BD00BFF0
S315080056B00800002080010020680100203801002031
S315080056C078010020A000002000000020A80000208B
S315080056D05001002070010020900100208801002060
S315080056E0A001002080B485B000AF154B9B69144A11
S315080056F043F001039361124B9B6903F00103BB60FE
S31508005700BB680F4BDB690E4A43F08053D3610C4BE1
S31508005710DB6903F080537B607B680A4B5B68FB6040
S31508005720FB6823F0E063FB60FB6843F08063FB6083
S31508005730044AFB68536000BF1437BD4680BC7047F7
S31508005740001002400000014080B400AF00BFBD4613
S3150800575080BC704780B400AFFEE780B400AFFEE7B8
S3150800576080B400AFFEE780B400AFFEE780B400AFB8
S3150800577000BFBD4680BC704780B400AF00BFBD46C1
S3150800578080BC704780B400AF00BFBD4680BC704780
S3150800579080B500AF00F0F8FB00BF80BD80B500AF54
S315080057A0024800F09BFF00BF80BD00BFEC00002050
S315080057B080B500AF034802F054F8FFF7C5FC00BFF8
S315080057C080BD00BF2802002080B584B000AF786095
S315080057D0114B1B68002B02D10F4B104A1A600E4B57
S315080057E01B68FB600C4B1A687B6813446A46934235
S315080057F007D903F093F802460C2313604FF0FF33E2
S3150800580006E0054B1A687B681344034A1360FB6875
S3150800581018461037BD4680BDB0000020F0020020B3
S3150800582080B400AF154B1B68144A43F0010313609C
S31508005830124B5A681149124B13404B600F4B1B68A9
S315080058400E4A23F0847323F4803313600B4B1B68D2
S315080058500A4A23F480231360084B5B68074A23F43B
S31508005860FE035360054B4FF41F029A60054B064A28
S315080058709A6000BFBD4680BC704700BF001002405A
S315080058800000FFF800ED00E00040000880B586B093
S3150800589000AF07F1080300221A605A609A60DA60BE
S315080058A03B4600221A605A601F4B204A1A601E4B5C
S315080058B04FF434725A601C4B00229A601A4B41F21C
S315080058C08832DA60184B00221A61174B00225A6197
S315080058D0154B80229A61144801F04AFE0346002BB4
S315080058E001D0FFF781FB4FF48053BB6007F1080333
S315080058F019460D4802F084F90346002B01D0FFF73C
S3150800590073FB00233B6000237B603B461946064831
S3150800591002F0FEFC0346002B01D0FFF765FB00BF33
S315080059201837BD4680BD00BF28020020002C014064
S3150800593080B58EB000AF07F1280300221A605A60BE
S315080059409A60DA6007F1200300221A605A603B1D4C
S3150800595000221A605A609A60DA601A615A619A617E
S31508005960324B4FF080421A60304B00225A602F4B60
S3150800597000229A602D4B4FF6FF72DA602B4B0022FD
S315080059801A612A4B80229A61284801F0F1FD0346E4
S31508005990002B01D0FFF728FB4FF48053BB6207F1B9
S315080059A028031946214802F02BF90346002B01D09B
S315080059B0FFF71AFB1D4801F029FE0346002B01D00C
S315080059C0FFF712FB00233B6200237B6207F12003EB
S315080059D01946164802F09CFC0346002B01D0FFF737
S315080059E003FB60237B600023BB600023FB6004236A
S315080059F07B613B1D002219460C4802F03BF8034622
S31508005A00002B01D0FFF7F0FA3B1D04221946074880
S31508005A1002F030F80346002B01D0FFF7E5FA0348F9
S31508005A2000F052F900BF3837BD4680BD6802002035
S31508005A3080B58CB000AF07F10C032422002118466C
S31508005A4002F096FF3B1D00221A605A60204B214A3D
S31508005A501A601F4B00225A601D4B00229A601C4B8D
S31508005A604FF6FF72DA601A4B00221A61184B802231
S31508005A709A610123FB6002233B6101237B610023BA
S31508005A80BB610023FB6102233B6201237B62002387
S31508005A90BB620023FB6207F10C0319460C4801F0B0
S31508005AA01BFE0346002B01D0FFF79EFA00237B60FE
S31508005AB00023BB603B1D1946054802F029FC034636
S31508005AC0002B01D0FFF790FA00BF3037BD4680BDE6
S31508005AD0E80100200004004080B58CB000AF07F153
S31508005AE00C0324220021184602F042FF3B1D002227
S31508005AF01A605A60204B214A1A601F4B00225A60CE
S31508005B001D4B00229A601C4B4FF6FF72DA601A4B47
S31508005B1000221A61184B80229A610123FB60022336
S31508005B203B6101237B610023BB610023FB610023EA
S31508005B303B6201237B620023BB620023FB6207F101
S31508005B400C0319460C4801F0C7FD0346002B01D08B
S31508005B50FFF74AFA00237B600023BB603B1D19460A
S31508005B60054802F0D5FB0346002B01D0FFF73CFAA7
S31508005B7000BF3037BD4680BDA801002000080040A0
S31508005B8080B584B000AF78607B681B68164A93427C
S31508005B9014D1164B9B69154A43F400639361134B62
S31508005BA09B6903F40063FB60FB680022002119204F
S31508005BB000F0E7FC192000F000FD10E07B681B6888
S31508005BC0B3F1804F0BD1094BDB69084A43F0010357
S31508005BD0D361064BDB6903F00103BB60BB6800BFFA
S31508005BE01037BD4680BD00BF002C014000100240A2
S31508005BF080B58AB000AF786007F1180300221A60F2
S31508005C005A609A60DA607B681B682A4A934224D1F4
S31508005C10294BDB69284A43F00203D361264BDB692B
S31508005C2003F002037B617B69234B9B69224A43F09D
S31508005C3004039361204B9B6903F004033B613B69B2
S31508005C40C023BB610023FB6100233B6207F11803F5
S31508005C5019461A4800F048FE28E07B681B68184A6F
S31508005C60934223D1144BDB69134A43F00403D361EF
S31508005C70114BDB6903F00403FB60FB680E4B9B6961
S31508005C800D4A43F0080393610B4B9B6903F0080325
S31508005C90BB60BB68C023BB610023FB6100233B627A
S31508005CA007F118031946074800F01EFE00BF2837FB
S31508005CB0BD4680BD000400400010024000080140B7
S31508005CC000080040000C014080B58AB000AF78603B
S31508005CD007F1140300221A605A609A60DA607B683A
S31508005CE01B68B3F1804F42D1234B9B69224A43F08C
S31508005CF004039361204B9B6903F004033B613B69F2
S31508005D001D4B9B691C4A43F0080393611A4B9B6918
S31508005D1003F00803FB60FB684FF400437B61022332
S31508005D20BB6103233B6207F114031946134800F0CD
S31508005D30DBFD08237B610223BB6103233B6207F17A
S31508005D40140319460E4800F0CFFD0E4B5B687B62C4
S31508005D507B6A23F440737B627B6A43F0E0637B6271
S31508005D607B6A43F480737B62064A7B6A536000BF92
S31508005D702837BD4680BD00BF00100240000801401C
S31508005D80000C01400000014080B500AF114B124ADB
S31508005D901A60104B4FF4E1325A600E4B00229A609B
S31508005DA00C4B0022DA600B4B00221A61094B0C22BD
S31508005DB05A61084B00229A61064B0022DA610548AF
S31508005DC002F0FCFA0346002B01D0FFF70DF900BFDD
S31508005DD080BD00BFA80200200038014080B588B009
S31508005DE000AF786007F1100300221A605A609A60C3
S31508005DF0DA607B681B681C4A934231D11B4B9B694E
S31508005E001A4A43F480439361184B9B6903F4804311
S31508005E10FB60FB68154B9B69144A43F004039361C6
S31508005E20124B9B6903F00403BB60BB684FF4007315
S31508005E303B6102237B610323FB6107F110031946CB
S31508005E400B4800F051FD4FF480633B6100237B61F2
S31508005E500023BB6107F110031946054800F044FD0D
S31508005E6000BF2037BD4680BD003801400010024003
S31508005E7000080140002103E00B4B5B5843500431F6
S31508005E800A480B4B42189A42F6D30A4A02E0002304
S31508005E9042F8043B084B9A42F9D3FFF7C1FC02F0DB
S31508005EA043FDFEF77DFF7047509200080000002072
S31508005EB08000002080000020F0020020FEE700009D
S31508005EC080B500AF084B1B68074A43F01003136000
S31508005ED0032000F04BFB002000F026F8FFF702FC39
S31508005EE00023184680BD00BF0020024080B500AFE1
S31508005EF0094B4FF0FF32DA60074B00221A61064B56
S31508005F004FF0FF32DA60044B0022DA6000F006F840
S31508005F100023184680BD00BF0010024080B400AFC1
S31508005F2000BFBD4680BC704780B582B000AF7860C0
S31508005F30124B1A68124B1B7819464FF47A73B3FB47
S31508005F40F1F3B2FBF3F3184600F045FB0346002BCA
S31508005F5001D001230EE07B680F2B0AD8002279684E
S31508005F604FF0FF3000F00DFB064A7B6813600023F4
S31508005F7000E0012318460837BD4680BD1000002002
S31508005F80180000201400002080B400AF054B1B78D1
S31508005F901A46054B1B681344034A136000BFBD46E7
S31508005FA080BC704718000020E802002080B400AFCB
S31508005FB0024B1B681846BD4680BC7047E8020020A5
S31508005FC080B586B000AF78600023FB7500233B617F
S31508005FD00023BB600023FB607B68002B01D10123F3
S31508005FE0BEE07B689B68002B7B689B6A002B09D107
S31508005FF07B680022DA627B68002283F824207868AE
S31508006000FEF76AFD786800F0ABF90346FB757B6816
S315080060109B6A03F01003002B40F09980FB7D002B50
S3150800602040F095807B689B6A23F4885323F002032B
S3150800603043F002027B689A627B685A687B68DB6970
S315080060401A437B681B7B5B001343BA681343BB6028
S315080060507B689B68B3F5807F03D07B689B68012BC0
S3150800606002D14FF4807300E000233A6913433B6181
S315080060707B681B7D012B19D17B681B7B002B09D103
S315080060807B689B69013B5A033B69134343F40063EE
S315080060903B610BE07B689B6A43F020027B689A624F
S315080060A07B68DB6A43F001027B68DA627B681B68FF
S315080060B05B6823F469417B681B683A690A435A603E
S315080060C07B681B689A68284B13407A681268B96817
S315080060D00B4393607B689B68B3F5807F03D07B682E
S315080060E09B68012B04D17B681B69013B1B05FB6080
S315080060F07B681B68DB6A23F470017B681B68FA6897
S315080061000A43DA627B681B689A68184B1340BA68B8
S315080061109A420BD17B680022DA627B689B6A23F07D
S31508006120030343F001027B689A6218E07B689B6A66
S3150800613023F0120343F010027B689A627B68DB6ADD
S3150800614043F001027B68DA620123FB7507E07B688E
S315080061509B6A43F010027B689A620123FB75FB7DFC
S3150800616018461837BD4680BDFDF7E1FFFE0E1FFF36
S3150800617080B485B000AF786039600023FB730023D4
S31508006180BB607B6893F82430012B01D10223DCE045
S315080061907B68012283F824203B685B68062B1CD8A1
S315080061A07B681B68596B3B685A6813469B00134407
S315080061B0053B1F2202FA03F3DB4319403B681868C4
S315080061C03B685A6813469B001344053B00FA03F2E2
S315080061D07B681B680A435A633CE03B685B680C2B88
S315080061E01CD87B681B68196B3B685A6813469B006A
S315080061F01344233B1F2202FA03F3DB4319403B688F
S3150800620018683B685A6813469B001344233B00FAF8
S3150800621003F27B681B680A431A631BE07B681B68EA
S31508006220D96A3B685A6813469B001344413B1F22B0
S3150800623002FA03F3DB4319403B6818683B685A685F
S3150800624013469B001344413B00FA03F27B681B6824
S315080062500A43DA623B681B68092B1CD97B681B68F2
S31508006260D9683B681A6813465B0013441E3B07222D
S3150800627002FA03F3DB4319403B6898683B681A68DF
S3150800628013465B0013441E3B00FA03F27B681B6847
S315080062900A43DA6019E07B681B6819693B681A6863
S315080062A013465B001344072202FA03F3DB43194043
S315080062B03B6898683B681A6813465B00134400FA03
S315080062C003F27B681B680A431A613B681B68102B3C
S315080062D003D03B681B68112B32D17B681B681D4AAB
S315080062E0934225D17B681B689B6803F40003002B47
S315080062F026D17B681B689A687B681B6842F4000293
S315080063009A603B681B68102B1AD1134B1B68134AFB
S31508006310A2FB03239A0C13469B0013445B00BB6045
S3150800632002E0BB68013BBB60BB68002BF9D107E004
S315080063307B689B6A43F020027B689A620123FB73A1
S315080063407B68002283F82420FB7B18461437BD4659
S3150800635080BC7047002401401000002083DE1B43E8
S3150800636080B584B000AF78600023FB607B681B684B
S315080063709B6803F00103012B27D17B681B689A6889
S315080063807B681B6822F001029A60FFF70FFEF8602F
S3150800639014E0FFF70BFE0246FB68D31A022B0DD951
S315080063A07B689B6A43F010027B689A627B68DB6AAB
S315080063B043F001027B68DA62012307E07B681B6809
S315080063C09B6803F00103012BE3D00023184610371E
S315080063D0BD4680BD80B485B000AF78607B6803F0A9
S315080063E00703FB600C4BDB68BB60BA684FF6FF031C
S315080063F01340BB60FB681A02BB68134343F0BF63D4
S3150800640043F40033BB60044ABB68D36000BF14374B
S31508006410BD4680BC704700BF00ED00E080B400AF09
S31508006420044BDB681B0A03F007031846BD4680BC0D
S31508006430704700BF00ED00E080B483B000AF0346AC
S31508006440FB7197F90730002B0BDBFB7903F01F0272
S31508006450064997F907305B09012000FA02F241F86C
S31508006460232000BF0C37BD4680BC704700E100E022
S3150800647080B483B000AF03463960FB7197F90730E3
S31508006480002B0ADB3B68DAB20C4997F90730120190
S31508006490D2B20B4483F800230AE03B68DAB2084913
S315080064A0FB7903F00F03043B1201D2B20B441A76B0
S315080064B000BF0C37BD4680BC704700BF00E100E056
S315080064C000ED00E080B489B000AFF860B9607A608A
S315080064D0FB6803F00703FB61FB69C3F10703042BA1
S315080064E028BF0423BB61FB690433062B02D9FB6969
S315080064F0033B00E000237B614FF0FF32BB6902FAE1
S3150800650003F3DA43BB681A407B699A404FF0FF31C0
S315080065107B6901FA03F3D9437B680B40134318469A
S315080065202437BD4680BC704780B582B000AF78601E
S315080065307B68013BB3F1807F01D301230FE00A4A50
S315080065407B68013B53600F214FF0FF30FFF790FF48
S31508006550054B00229A60044B07221A60002318464E
S315080065600837BD4680BD00BF10E000E080B582B0A8
S3150800657000AF78607868FFF72DFF00BF0837BD4683
S3150800658080BD80B586B000AF0346B9607A60FB73FC
S3150800659000237B61FFF742FF78617A68B9687869FA
S315080065A0FFF790FF024697F90F3011461846FFF796
S315080065B05FFF00BF1837BD4680BD80B582B000AF0B
S315080065C00346FB7197F907301846FFF735FF00BFFA
S315080065D00837BD4680BD80B582B000AF7860786860
S315080065E0FFF7A2FF034618460837BD4680BD80B5AB
S315080065F082B000AF78607B68002B01D101230EE0E2
S315080066007B685B79DBB2002B05D17B6800221A71A7
S315080066107868FEF7DDFA7B6801225A71002318466E
S315080066200837BD4680BD000080B485B000AF7860ED
S315080066300023FB607B68002B01D1012343E07B68C4
S315080066401B681A46224B1344224AA2FB03231B0942
S315080066509A007B681A647B681F4ADA637B680222A1
S3150800666083F821207B681B681B68FB60FB6823F4A2
S315080066707F5323F03003FB607B685A687B689B680E
S315080066801A437B68DB681A437B681B691A437B6875
S315080066905B691A437B689B691A437B68DB6913430A
S315080066A0FA681343FB607B681B68FA681A607B68A4
S315080066B000229A637B68012283F821207B680022E6
S315080066C083F82020002318461437BD4680BC70473F
S315080066D0F8FFFDBFCDCCCCCC0000024080B584B01D
S315080066E000AF78607B68DB6B1B68FB607B681B68A8
S315080066F01B68BB607B681B6C04229A40FB681340CE
S31508006700002B4FD0BB6803F00403002B4AD07B68EC
S315080067101B681B6803F02003002B07D17B681B68E6
S315080067201A687B681B6822F004021A607B681B687B
S31508006730664A934229D07B681B68654A934222D0F1
S315080067407B681B68634A93421AD07B681B68624A57
S31508006750934212D07B681B68604A93420AD07B68D2
S315080067601B685F4A934202D14FF480030EE04FF054
S3150800677080630BE04FF4802308E04FF4804305E084
S315080067804FF4806302E0402300E00423554A536037
S315080067907B68DB6A002B00F094807B68DB6A78688C
S315080067A098478EE07B681B6C02229A40FB68134070
S315080067B0002B56D0BB6803F00203002B51D07B6830
S315080067C01B681B6803F02003002B0BD17B681B6832
S315080067D01A687B681B6822F00A021A607B68012225
S315080067E083F821207B681B68384A934229D07B6846
S315080067F01B68374A934222D07B681B68354A934206
S315080068001AD07B681B68344A934212D07B681B688F
S31508006810324A93420AD07B681B68314A934202D1B6
S315080068204FF400130EE04FF000730BE04FF4003303
S3150800683008E04FF4005305E04FF4007302E020230C
S3150800684000E00223274A53607B68002283F8202051
S315080068507B689B6A002B34D07B689B6A786898476C
S315080068602FE07B681B6C08229A40FB681340002BBC
S3150800687028D0BB6803F00803002B23D07B681B686D
S315080068801A687B681B6822F00E021A607B681A6C0D
S315080068907B68DB6B012101FA02F25A607B680122F0
S315080068A09A637B68012283F821207B68002283F89B
S315080068B020207B681B6B002B04D07B681B6B7868D9
S315080068C0984700BF00BF1037BD4680BD080002408C
S315080068D01C000240300002404400024058000240BA
S315080068E06C0002400000024080B48BB000AF7860B4
S315080068F0396000237B6200233B6227E101227B6A21
S3150800690002FA03F3FB613B681B68FA691340BB6133
S31508006910BA69FB699A4240F016813B685B68122B9C
S3150800692034D0122B0DD8022B2BD0022B04D8002BD7
S3150800693031D0012B1CD048E0032B43D0112B1BD0A0
S3150800694043E0894A934226D0874A934206D8874A23
S31508006950934220D0864A93421DD036E0854A934218
S3150800696019D0854A934216D0844A934213D02CE014
S315080069703B68DB683B6228E03B68DB6804333B62C4
S3150800698023E03B68DB6808333B621EE03B68DB6854
S315080069900C333B6219E03B689B68002B02D1042349
S315080069A03B6212E03B689B68012B05D108233B62DA
S315080069B07B68FA691A6108E008233B627B68FA6912
S315080069C05A6102E000233B6200BFBB69FF2B01D876
S315080069D07B6801E07B6804337B61BB69FF2B02D8C7
S315080069E07B6A9B0002E07B6A083B9B003B617B69F4
S315080069F01A680F213B6901FA03F3DB431A40396A27
S31508006A003B6901FA03F31A437B691A603B685B68C2
S31508006A1003F08053002B00F09680594B9B69584A27
S31508006A2043F001039361564B9B6903F00103BB6076
S31508006A30BB68544A7B6A9B08023352F82330FB60D2
S31508006A407B6A03F003039B000F2202FA03F3DB437E
S31508006A50FA681340FB607B684B4A934213D07B6805
S31508006A604A4A93420DD07B68494A934207D07B68CD
S31508006A70484A934201D1032306E0042304E0022393
S31508006A8002E0012300E000237A6A02F00302920082
S31508006A909340FA681343FB603A497B6A9B080233C2
S31508006AA0FA6841F823203B685B6803F48033002BBF
S31508006AB006D0394B1A683849BB6913430B6006E0A0
S31508006AC0354B1A68BB69DB43334913400B603B6897
S31508006AD05B6803F40033002B06D02F4B5A682E4907
S31508006AE0BB6913434B6006E02B4B5A68BB69DB4313
S31508006AF0294913404B603B685B6803F48013002BFD
S31508006B0006D0254B9A682449BB6913438B6006E077
S31508006B10214B9A68BB69DB431F4913408B603B686E
S31508006B205B6803F40013002B06D01B4BDA681A497E
S31508006B30BB691343CB6006E0174BDA68BB69DB43D6
S31508006B4015491340CB607B6A01337B623B681A6840
S31508006B507B6A22FA03F3002B7FF4D0AE00BF2C37F2
S31508006B60BD4680BC704700BF000021100000111010
S31508006B700000121000003110000032100000221030
S31508006B80001002400000014000080140000C0140CE
S31508006B9000100140001401400004014080B483B095
S31508006BA000AF78600B467B8013467B707B78002BA2
S31508006BB003D07A887B681A6103E07B881A047B68AD
S31508006BC01A6100BF0C37BD4680BC704780B586B0D9
S31508006BD000AF78607B68002B01D101236CE27B68EB
S31508006BE01B6803F00103002B00F08780924B5B685B
S31508006BF003F00C03042B0CD08F4B5B6803F00C03DB
S31508006C00082B12D18C4B5B6803F48033B3F5803FB5
S31508006C100BD1894B1B6803F40033002B6CD07B68BF
S31508006C205B68002B68D1012346E27B685B68B3F595
S31508006C30803F06D1804B1B687F4A43F4803313603C
S31508006C402EE07B685B68002B0CD17B4B1B687A4A6D
S31508006C5023F480331360784B1B68774A23F4802328
S31508006C6013601DE07B685B68B3F5A02F0CD1724BEF
S31508006C701B68714A43F4802313606F4B1B686E4A86
S31508006C8043F4803313600BE06B4B1B686A4A23F4AA
S31508006C9080331360684B1B68674A23F480231360AC
S31508006CA07B685B68002B13D0FFF780F9386108E032
S31508006CB0FFF77CF902463B69D31A642B01D90323F3
S31508006CC0FAE15D4B1B6803F40033002BF0D014E0A7
S31508006CD0FFF76CF9386108E0FFF768F902463B6987
S31508006CE0D31A642B01D90323E6E1534B1B6803F43B
S31508006CF00033002BF0D100E000BF7B681B6803F06F
S31508006D000203002B63D04C4B5B6803F00C03002B8B
S31508006D100BD0494B5B6803F00C03082B1CD1464B80
S31508006D205B6803F48033002B16D1434B1B6803F0D2
S31508006D300203002B05D07B681B69012B01D00123B8
S31508006D40BAE13D4B1B6823F0F8027B685B69DB0000
S31508006D50394913430B603AE07B681B69002B20D046
S31508006D60364B01221A60FFF721F9386108E0FFF770
S31508006D701DF902463B69D31A022B01D903239BE16D
S31508006D802D4B1B6803F00203002BF0D02A4B1B681F
S31508006D9023F0F8027B685B69DB00274913430B6025
S31508006DA015E0264B00221A60FFF700F9386108E063
S31508006DB0FFF7FCF802463B69D31A022B01D90323D5
S31508006DC07AE11D4B1B6803F00203002BF0D17B68A8
S31508006DD01B6803F00803002B3AD07B689B69002BDD
S31508006DE019D0174B01221A60FFF7E0F8386108E05E
S31508006DF0FFF7DCF802463B69D31A022B01D90323B5
S31508006E005AE10D4B5B6A03F00203002BF0D0012018
S31508006E1000F0DAFA1CE00A4B00221A60FFF7C6F8FF
S31508006E2038610FE0FFF7C2F802463B69D31A022B16
S31508006E3008D9032340E100BF001002400000424287
S31508006E40800442429E4B5B6A03F00203002BE9D1A1
S31508006E507B681B6803F00403002B00F0A680002360
S31508006E60FB75974BDB6903F08053002B0DD1944BD0
S31508006E70DB69934A43F08053D361914BDB6903F096
S31508006E808053BB60BB680123FB758E4B1B6803F4FC
S31508006E908073002B18D18B4B1B688A4A43F4807386
S31508006EA01360FFF783F8386108E0FFF77FF80246BA
S31508006EB03B69D31A642B01D90323FDE0814B1B6878
S31508006EC003F48073002BF0D07B68DB68012B06D1B6
S31508006ED07B4B1B6A7A4A43F0010313622DE07B68F9
S31508006EE0DB68002B0CD1764B1B6A754A23F001032D
S31508006EF01362734B1B6A724A23F0040313621CE085
S31508006F007B68DB68052B0CD16D4B1B6A6C4A43F01A
S31508006F10040313626A4B1B6A694A43F0010313624E
S31508006F200BE0674B1B6A664A23F001031362644B46
S31508006F301B6A634A23F0040313627B68DB68002B31
S31508006F4015D0FFF733F838610AE0FFF72FF8024645
S31508006F503B69D31A41F28832934201D90323ABE045
S31508006F60574B1B6A03F00203002BEED014E0FFF721
S31508006F701DF838610AE0FFF719F802463B69D31A8B
S31508006F8041F28832934201D9032395E04C4B1B6AA0
S31508006F9003F00203002BEED1FB7D012B05D1484BF4
S31508006FA0DB69474A23F08053D3617B68DB69002B92
S31508006FB000F08180424B5B6803F00C03082B61D01C
S31508006FC07B68DB69022B46D13F4B00221A60FEF72D
S31508006FD0EDFF386108E0FEF7E9FF02463B69D31A80
S31508006FE0022B01D9032367E0354B1B6803F00073B6
S31508006FF0002BF0D17B681B6AB3F5803F08D1304B74
S315080070005B6823F400327B689B682D4913434B6009
S315080070102B4B5B6823F474127B68196A7B685B6A7E
S315080070200B43274913434B60274B01221A60FEF78F
S31508007030BDFF386108E0FEF7B9FF02463B69D31A7F
S31508007040022B01D9032337E01D4B1B6803F000739D
S31508007050002BF0D02FE01C4B00221A60FEF7A6FF8B
S31508007060386108E0FEF7A2FF02463B69D31A022BF5
S3150800707001D9032320E0124B1B6803F00073002B91
S31508007080F0D118E07B68DB69012B01D1012313E0FD
S315080070900B4B5B68FB60FB6803F480327B681B6AFA
S315080070A09A4206D1FB6803F470127B685B6A9A42BF
S315080070B001D0012300E0002318461837BD4680BDDD
S315080070C000100240007000406000424280B584B063
S315080070D000AF786039607B68002B01D10123D0E0CE
S315080070E06A4B1B6803F007033A689A4210D9674B44
S315080070F01B6823F0070265493B6813430B60634B23
S315080071001B6803F007033A689A4201D00123B8E0E6
S315080071107B681B6803F00203002B20D07B681B6882
S3150800712003F00403002B05D0594B5B68584A43F417
S31508007130E06353607B681B6803F00803002B05D0E7
S31508007140534B5B68524A43F460535360504B5B6839
S3150800715023F0F0027B689B684D4913434B607B68BC
S315080071601B6803F00103002B40D07B685B68012B8A
S3150800717007D1474B1B6803F40033002B15D10123B5
S315080071807FE07B685B68022B07D1414B1B6803F0E5
S315080071900073002B09D1012373E03D4B1B6803F0F4
S315080071A00203002B01D101236BE0394B5B6823F006
S315080071B003027B685B68364913434B60FEF7F6FEAD
S315080071C0F8600AE0FEF7F2FE0246FB68D31A41F2BF
S315080071D08832934201D9032353E02D4B5B6803F0B1
S315080071E00C027B685B689B009A42EBD1274B1B68B5
S315080071F003F007033A689A4210D2244B1B6823F01F
S31508007200070222493B6813430B60204B1B6803F0B7
S3150800721007033A689A4201D0012332E07B681B686B
S3150800722003F00403002B08D0194B5B6823F4E062D3
S315080072307B68DB68164913434B607B681B6803F061
S315080072400803002B09D0124B5B6823F460527B6855
S315080072501B69DB000E4913434B6000F021F8014619
S315080072600B4B5B681B0903F00F030A4AD35C21FA30
S3150800727003F3094A1360094B1B681846FEF754FEC8
S31508007280002318461037BD4680BD00BF00200240C7
S3150800729000100240FC910008100000201400002095
S315080072A090B48AB000AF2A4B3C1D0FCB84E80F0080
S315080072B0284B1B883B800023FB610023BB6100230E
S315080072C07B6200237B6100233B62234B5B68FB6187
S315080072D0FB6903F00C03042B02D0082B03D02DE026
S315080072E01E4B3B622DE0FB699B0C03F00F0307F175
S315080072F02802134413F8243C7B61FB6903F48033AA
S31508007300002B13D0144B5B685B0C03F0010307F1E9
S315080073102802134413F8283CBB617B690F4A02FB19
S3150800732003F2BB69B2FBF3F37B6204E07B690C4AA8
S3150800733002FB03F37B627B6A3B6202E0074B3B621C
S3150800734000BF3B6A18462837BD4690BC704700BF49
S31508007350E8910008F89100080010024000127A002F
S3150800736000093D0080B400AF024B1B681846BD46B5
S3150800737080BC70471000002080B500AFFFF7F2FF11
S315080073800146054B5B681B0A03F00703034AD35CF7
S3150800739021FA03F3184680BD001002400C9200083B
S315080073A080B500AFFFF7DEFF0146054B5B68DB0AD9
S315080073B003F00703034AD35C21FA03F3184680BD9A
S315080073C0001002400C92000880B485B000AF7860C7
S315080073D00A4B1B680A4AA2FB03235B0A7A6802FB6C
S315080073E003F3FB6000BFFB685A1EFA60002BF9D155
S315080073F000BF1437BD4680BC704700BF1000002090
S31508007400D34D621080B586B000AF786000233B612B
S315080074100023FB607B681B6803F00103002B7DD00B
S315080074200023FB754F4BDB6903F08053002B0DD10E
S315080074304C4BDB694B4A43F08053D361494BDB69BC
S3150800744003F08053BB60BB680123FB75464B1B6882
S3150800745003F48073002B18D1434B1B68424A43F44C
S3150800746080731360FEF7A2FD386108E0FEF79EFD03
S3150800747002463B69D31A642B01D903236DE03A4BC4
S315080074801B6803F48073002BF0D0364B1B6A03F499
S315080074904073FB60FB68002B2ED07B685B6803F4A7
S315080074A04073FA689A4227D02E4B1B6A23F440731E
S315080074B0FB602E4B01221A602C4B00221A60294AC7
S315080074C0FB681362FB6803F00103002B14D0FEF778
S315080074D06DFD38610AE0FEF769FD02463B69D31A7D
S315080074E041F28832934201D9032336E01D4B1B6AC9
S315080074F003F00203002BEED01A4B1B6A23F44072EA
S315080075007B685B68174913430B62FB7D012B05D12A
S31508007510144BDB69134A23F08053D3617B681B68DD
S3150800752003F00203002B08D00E4B5B6823F440429D
S315080075307B689B680B4913434B607B681B6803F0A9
S315080075401003002B08D0074B5B6823F480027B6886
S31508007550DB68044913434B60002318461837BD46B9
S3150800756080BD00BF00100240007000404004424247
S3150800757080B582B000AF78607B68002B01D101230B
S315080075801DE07B6893F83D30DBB2002B06D17B68A3
S31508007590002283F83C207868FEF7F2FA7B6802221C
S315080075A083F83D207B681A687B68043319461046C1
S315080075B000F00AFC7B68012283F83D200023184668
S315080075C00837BD4680BD80B485B000AF78607B685B
S315080075D01B68DA687B681B6842F00102DA607B6820
S315080075E01B689B6803F00703FB60FB68062B07D044
S315080075F07B681B681A687B681B6842F001021A6080
S31508007600002318461437BD4680BC704780B582B043
S3150800761000AF78607B68002B01D101231DE07B68F1
S3150800762093F83D30DBB2002B06D17B68002283F845
S315080076303C20786800F015F87B68022283F83D2024
S315080076407B681A687B6804331946104600F0BCFB51
S315080076507B68012283F83D20002318460837BD467B
S3150800766080BD80B483B000AF786000BF0C37BD46DC
S3150800767080BC704780B584B000AF786039607B689D
S315080076801B6801223968184600F01EFE7B681B68D5
S31508007690104A934207D17B681B685A6C7B681B6843
S315080076A042F400425A647B681B689B6803F0070330
S315080076B0FB60FB68062B07D07B681B681A687B682B
S315080076C01B6842F001021A60002318461037BD46AF
S315080076D080BD00BF002C014080B586B000AF786041
S315080076E039607B68002B01D101237FE07B6893F822
S315080076F03D30DBB2002B06D17B68002283F83C20A4
S315080077007868FEF775FA7B68022283F83D207B6865
S315080077101B689B687A68126823F4804323F0070382
S3150800772093607B681A687B6804331946104600F034
S315080077304BFB7B681B689B687B617B681B689B6946
S315080077403B617B681B681B6AFB603B681B687A6940
S3150800775013437B613B6923F4407323F003033B61C6
S315080077603B689A683B689B691B0213433A69134353
S315080077703B613B6923F4406323F00C033B613B699F
S3150800778023F4704323F0F0033B613B68DA683B68F7
S31508007790DB691B0213433A6913433B613B681B6968
S315080077A01A013B681B6A1B0313433A6913433B617F
S315080077B0FB6823F02203FB603B685A683B685B69F9
S315080077C01B011343FA681343FB607B681B687A69DD
S315080077D09A607B681B683A699A617B681B68FA68D5
S315080077E01A627B68012283F83D2000231846183761
S315080077F0BD4680BD80B582B000AF786039603B6811
S31508007800002B02D0042B08D00FE07B681B680122EE
S315080078100021184600F058FD16E07B681B68012217
S315080078200421184600F050FD0EE07B681B68012213
S315080078300021184600F048FD7B681B6801220421D8
S31508007840184600F041FD00BF7B681B681A687B6814
S315080078501B6842F001021A60002318460837BD4625
S3150800786080BD80B582B000AF78607B681B681B69F5
S3150800787003F00203022B22D17B681B68DB6803F046
S315080078800203022B1BD17B681B686FF002021A6188
S315080078907B6801221A777B681B689B6903F00303E0
S315080078A0002B03D0786800F074FA05E0786800F0D9
S315080078B067FA786800F076FA7B6800221A777B68A0
S315080078C01B681B6903F00403042B22D17B681B6821
S315080078D0DB6803F00403042B1BD17B681B686FF07D
S315080078E004021A617B6802221A777B681B689B6907
S315080078F003F44073002B03D0786800F04AFA05E0D9
S31508007900786800F03DFA786800F04CFA7B68002247
S315080079101A777B681B681B6903F00803082B22D1BA
S315080079207B681B68DB6803F00803082B1BD17B68A0
S315080079301B686FF008021A617B6804221A777B6855
S315080079401B68DB6903F00303002B03D0786800F09B
S3150800795020FA05E0786800F013FA786800F022FA51
S315080079607B6800221A777B681B681B6903F0100383
S31508007970102B22D17B681B68DB6803F01003102BE1
S315080079801BD17B681B686FF010021A617B6808229E
S315080079901A777B681B68DB6903F44073002B03D0F6
S315080079A0786800F0F6F905E0786800F0E9F9786893
S315080079B000F0F8F97B6800221A777B681B681B6958
S315080079C003F00103012B0ED17B681B68DB6803F00B
S315080079D00103012B07D17B681B686FF001021A614E
S315080079E0786800F0C4F97B681B681B6903F080039C
S315080079F0802B0ED17B681B68DB6803F08003802B25
S31508007A0007D17B681B686FF080021A61786800F0FE
S31508007A10CCFC7B681B681B6903F04003402B0ED126
S31508007A207B681B68DB6803F04003402B07D17B6843
S31508007A301B686FF040021A61786800F0BCF97B6831
S31508007A401B681B6903F02003202B0ED17B681B687B
S31508007A50DB6803F02003202B07D17B681B686FF0D7
S31508007A6020021A61786800F097FC00BF0837BD4607
S31508007A7080BD000080B584B000AFF860B9607A6058
S31508007A80FB6893F83C30012B01D10223B4E0FB6874
S31508007A90012283F83C20FB68022283F83D207B689C
S31508007AA00C2B00F29F8001A252F823F0E17A00081D
S31508007AB0E57B0008E57B0008E57B0008217B0008DC
S31508007AC0E57B0008E57B0008E57B0008637B00088A
S31508007AD0E57B0008E57B0008E57B0008A37B00083A
S31508007AE0FB681B68B968184600F0D0F9FB681B6884
S31508007AF09A69FB681B6842F008029A61FB681B6872
S31508007B009A69FB681B6822F004029A61FB681B6885
S31508007B109969BB681A69FB681B680A439A6162E03F
S31508007B20FB681B68B968184600F016FAFB681B68FC
S31508007B309A69FB681B6842F400629A61FB681B68D5
S31508007B409A69FB681B6822F480629A61FB681B6865
S31508007B509969BB681B691A02FB681B680A439A6124
S31508007B6041E0FB681B68B968184600F05FFAFB68D5
S31508007B701B68DA69FB681B6842F00802DA61FB6871
S31508007B801B68DA69FB681B6822F00402DA61FB6885
S31508007B901B68D969BB681A69FB681B680A43DA61FE
S31508007BA021E0FB681B68B968184600F0A9FAFB686B
S31508007BB01B68DA69FB681B6842F40062DA61FB68D5
S31508007BC01B68DA69FB681B6822F48062DA61FB6865
S31508007BD01B68D969BB681B691A02FB681B680A43DC
S31508007BE0DA6100E000BFFB68012283F83D20FB68EC
S31508007BF0002283F83C20002318461037BD4680BD76
S31508007C0080B584B000AF786039607B6893F83C3003
S31508007C10012B01D10223A6E07B68012283F83C20D0
S31508007C207B68022283F83D207B681B689B68FB60A3
S31508007C30FB6823F07703FB60FB6823F47F43FB6054
S31508007C407B681B68FA689A603B681B68402B67D09C
S31508007C50402B0BD8102B73D0102B02D8002B6FD0CB
S31508007C6078E0202B6CD0302B6AD073E0702B0DD0C7
S31508007C70702B04D8502B33D0602B41D06AE0B3F573
S31508007C80805F66D0B3F5005F17D063E07B6818683D
S31508007C903B6899683B685A683B68DB6800F0F5FA08
S31508007CA07B681B689B68FB60FB6843F07703FB6097
S31508007CB07B681B68FA689A604CE07B6818683B68C2
S31508007CC099683B685A683B68DB6800F0DEFA7B68AF
S31508007CD01B689A687B681B6842F480429A6039E0A0
S31508007CE07B6818683B6859683B68DB681A4600F089
S31508007CF055FA7B681B685021184600F0ACFA29E053
S31508007D007B6818683B6859683B68DB681A4600F068
S31508007D1073FA7B681B686021184600F09CFA19E024
S31508007D207B6818683B6859683B68DB681A4600F048
S31508007D3035FA7B681B684021184600F08CFA09E082
S31508007D407B681A683B681B681946104600F083FA78
S31508007D5000E000BF7B68012283F83D207B68002293
S31508007D6083F83C20002318461037BD4680BD80B4F2
S31508007D7083B000AF786000BF0C37BD4680BC704743
S31508007D8080B483B000AF786000BF0C37BD4680BCB6
S31508007D90704780B483B000AF786000BF0C37BD462B
S31508007DA080BC704780B483B000AF786000BF0C37E2
S31508007DB0BD4680BC704780B483B000AF786000BF12
S31508007DC00C37BD4680BC704780B485B000AF78607C
S31508007DD039607B681B68FB607B68294A93420BD035
S31508007DE07B68B3F1804F07D07B68264A934203D05D
S31508007DF07B68254A934208D1FB6823F07003FB6031
S31508007E003B685B68FA681343FB607B681C4A9342CD
S31508007E100BD07B68B3F1804F07D07B68194A934231
S31508007E2003D07B68184A934208D1FB6823F4407351
S31508007E30FB603B68DB68FA681343FB60FB6823F06A
S31508007E4080023B685B691343FB607B68FA681A60CB
S31508007E503B689A687B68DA623B681A687B689A624C
S31508007E607B68074A934203D13B681A697B681A63A1
S31508007E707B6801225A6100BF1437BD4680BC704733
S31508007E80002C0140000400400008004080B487B080
S31508007E9000AF786039607B681B6A23F001027B6853
S31508007EA01A627B681B6A7B617B685B683B617B68DF
S31508007EB09B69FB60FB6823F07003FB60FB6823F09B
S31508007EC00303FB603B681B68FA681343FB607B6926
S31508007ED023F002037B613B689B687A6913437B61E5
S31508007EE07B681C4A93420CD17B6923F008037B61AB
S31508007EF03B68DB687A6913437B617B6923F004037B
S31508007F007B617B68134A934211D13B6923F48073E2
S31508007F103B613B6923F400733B613B685B693A69E3
S31508007F2013433B613B689B693A6913433B617B6832
S31508007F303A695A607B68FA689A613B685A687B684E
S31508007F405A637B687A691A6200BF1C37BD4680BCD3
S31508007F50704700BF002C014080B487B000AF78603E
S31508007F6039607B681B6A23F010027B681A627B689B
S31508007F701B6A7B617B685B683B617B689B69FB600E
S31508007F80FB6823F4E043FB60FB6823F44073FB6063
S31508007F903B681B681B02FA681343FB607B6923F086
S31508007FA020037B613B689B681B017A6913437B61ED
S31508007FB07B681D4A93420DD17B6923F080037B6160
S31508007FC03B68DB681B017A6913437B617B6923F095
S31508007FD040037B617B68144A934213D13B6923F4BF
S31508007FE080633B613B6923F400633B613B685B69E3
S31508007FF09B003A6913433B613B689B699B003A695E
S3150800800013433B617B683A695A607B68FA689A61F0
S315080080103B685A687B689A637B687A691A6200BF0C
S315080080201C37BD4680BC7047002C014080B487B021
S3150800803000AF786039607B681B6A23F480727B68BE
S315080080401A627B681B6A7B617B685B683B617B683D
S31508008050DB69FB60FB6823F07003FB60FB6823F0B9
S315080080600303FB603B681B68FA681343FB607B6984
S3150800807023F400737B613B689B681B027A69134390
S315080080807B617B681D4A93420DD17B6923F40063AB
S315080080907B613B68DB681B027A6913437B617B69FA
S315080080A023F480637B617B68144A934213D13B694E
S315080080B023F480533B613B6923F400533B613B68DF
S315080080C05B691B013A6913433B613B689B691B016A
S315080080D03A6913433B617B683A695A607B68FA6878
S315080080E0DA613B685A687B68DA637B687A691A6280
S315080080F000BF1C37BD4680BC704700BF002C01403E
S3150800810080B487B000AF786039607B681B6A23F457
S3150800811080527B681A627B681B6A3B617B685B6876
S315080081207B617B68DB69FB60FB6823F4E043FB60EB
S31508008130FB6823F44073FB603B681B681B02FA6804
S315080081401343FB603B6923F400533B613B689B6820
S315080081501B033A6913433B617B680F4A934209D173
S315080081607B6923F480437B613B685B699B017A6981
S3150800817013437B617B687A695A607B68FA68DA61BF
S315080081803B685A687B681A647B683A691A6200BF5A
S315080081901C37BD4680BC7047002C014080B487B0B0
S315080081A000AFF860B9607A60FB681B6A7B61FB68A0
S315080081B01B6A23F00102FB681A62FB689B693B6134
S315080081C03B6923F0F0033B617B681B013A69134363
S315080081D03B617B6923F00A037B617A69BB681343B9
S315080081E07B61FB683A699A61FB687A691A6200BF23
S315080081F01C37BD4680BC704780B487B000AFF860B6
S31508008200B9607A60FB681B6A23F01002FB681A6281
S31508008210FB689B697B61FB681B6A3B617B6923F48E
S3150800822070437B617B681B037A6913437B613B69F7
S3150800823023F0A0033B61BB681B013A6913433B610A
S31508008240FB687A699A61FB683A691A6200BF1C374B
S31508008250BD4680BC704780B485B000AF7860396091
S315080082607B689B68FB60FB6823F07003FB603A68D9
S31508008270FB68134343F00703FB607B68FA689A6060
S3150800828000BF1437BD4680BC704780B487B000AFC6
S31508008290F860B9607A603B60FB689B687B617B69C4
S315080082A023F47F437B613B681A027B681A43BB68E9
S315080082B013437A6913437B61FB687A699A6000BF46
S315080082C01C37BD4680BC704780B487B000AFF860E5
S315080082D0B9607A60BB6803F01F03012202FA03F350
S315080082E07B61FB681A6A7B69DB431A40FB681A6282
S315080082F0FB681A6ABB6803F01F03796801FA03F37F
S315080083001A43FB681A6200BF1C37BD4680BC70471B
S3150800831080B485B000AF786039607B6893F83C30EC
S31508008320012B01D1022332E07B68012283F83C202D
S315080083307B68022283F83D207B681B685B68FB60CC
S315080083407B681B689B68BB60FB6823F07003FB6057
S315080083503B681B68FA681343FB60BB6823F080031D
S31508008360BB603B685B68BA681343BB607B681B6885
S31508008370FA685A607B681B68BA689A607B6801224B
S3150800838083F83D207B68002283F83C2000231846AA
S315080083901437BD4680BC704780B483B000AF7860A0
S315080083A000BF0C37BD4680BC704780B483B000AFB1
S315080083B0786000BF0C37BD4680BC704780B582B078
S315080083C000AF78607B68002B01D101233FE07B6812
S315080083D093F83930DBB2002B06D17B68002283F88C
S315080083E038207868FDF7FAFC7B68242283F8392060
S315080083F07B681B68DA687B681B6822F40052DA60BF
S31508008400786800F0B1F97B681B681A697B681B6895
S3150800841022F490421A617B681B685A697B681B685C
S3150800842022F02A025A617B681B68DA687B681B6837
S3150800843042F40052DA607B680022DA637B68202205
S3150800844083F839207B68202283F83A2000231846CF
S315080084500837BD4680BD80B588B002AFF860B96000
S315080084603B601346FB8000237B61FB6893F8393039
S31508008470DBB2202B40F08380BB68002B02D0FB8840
S31508008480002B01D101237BE0FB6893F83830012BE0
S3150800849001D1022374E0FB68012283F83820FB68C7
S315080084A00022DA63FB68212283F83920FDF77EFD76
S315080084B07861FB68FA889A84FB68FA88DA8442E06D
S315080084C0FB68DB8C9BB2013B9AB2FB68DA84FB68DB
S315080084D09B68B3F5805F22D13B6800937B690022D5
S315080084E08021F86800F0F6F80346002B01D0032334
S315080084F046E0BB683B613B691B881A46FB681B68FC
S31508008500C2F308025A60FB681B69002B03D1BB68DB
S315080085100233BB6017E0BB680133BB6013E03B68FE
S3150800852000937B6900228021F86800F0D3F803469F
S31508008530002B01D0032323E0BB685A1CBA601A78C3
S31508008540FB681B685A60FB68DB8C9BB2002BB7D1B3
S315080085503B6800937B6900224021F86800F0BAF86E
S315080085600346002B01D003230AE0FB68202283F888
S315080085703920FB68002283F83820002300E0022314
S3150800858018461837BD4680BD80B588B002AFF8607A
S31508008590B9603B601346FB8000237B61FB6893F858
S315080085A03A30DBB2202B40F09080BB68002B02D01B
S315080085B0FB88002B01D1012388E0FB6893F838304B
S315080085C0012B01D1022381E0FB68012283F83820C0
S315080085D0FB680022DA63FB68222283F83A20FDF75B
S315080085E0E5FC7861FB68FA889A85FB68FA88DA857B
S315080085F05CE0FB68DB8D9BB2013B9AB2FB68DA85CF
S31508008600FB689B68B3F5805F2BD13B6800937B6959
S3150800861000222021F86800F05DF80346002B01D0FF
S31508008620032353E0BB683B61FB681B69002B0CD135
S31508008630FB681B685B689BB2C3F308039AB23B6985
S315080086401A80BB680233BB6030E0FB681B685B6856
S315080086509BB2DBB29AB23B691A80BB680133BB6036
S3150800866024E03B6800937B6900222021F86800F02B
S3150800867031F80346002B01D0032327E0FB681B696A
S31508008680002B08D1FB681B685968BB685A1CBA607E
S31508008690CAB21A700AE0FB681B685B68DAB2BB6884
S315080086A0591CB96002F07F02D2B21A70FB68DB8DE2
S315080086B09BB2002B9DD1FB68202283F83A20FB68E9
S315080086C0002283F83820002300E0022318461837D2
S315080086D0BD4680BD80B584B000AFF860B9603B6028
S315080086E01346FB712CE0BB69B3F1FF3F28D0BB6989
S315080086F0002B07D0FDF75AFC02463B68D31ABA6925
S315080087009A421DD2FB681B68DA68FB681B6822F46C
S31508008710D072DA60FB681B685A69FB681B6822F02E
S3150800872001025A61FB68202283F83920FB6820225F
S3150800873083F83A20FB68002283F8382003230FE0E9
S31508008740FB681B681A68BB681340BA689A420CBF74
S3150800875001230023DBB21A46FB799A42C3D00023D1
S3150800876018461037BD4680BD80B584B000AF786026
S315080087707B681B681B6923F440517B68DA687B6851
S315080087801B680A431A617B689A687B681B691A43E7
S315080087907B685B691343FB607B681B68DB6823F4B3
S315080087A0B05323F00C037A681268F9680B43D36058
S315080087B07B681B685B6923F440717B689A697B68F0
S315080087C01B680A435A617B681B68524A93424ED11A
S315080087D0FEF7E6FDB860BA6813469B0013449A0094
S315080087E01A447B685B689B00B2FBF3F34A4AA2FB18
S315080087F003235B091901BA6813469B0013449A00C0
S315080088001A447B685B689B00B2FBF3F2424BA3FBFE
S3150800881002035B09642000FB03F3D31A1B013233FE
S315080088203D4AA2FB03235B0903F0F0031944BA6827
S3150800883013469B0013449A001A447B685B689B00A6
S31508008840B2FBF3F2344BA3FB02035B09642000FB83
S3150800885003F3D31A1B0132332F4AA2FB03235B0906
S3150800886003F00F027B681B680A449A604DE0FEF726
S3150800887083FDB860BA6813469B0013449A001A44ED
S315080088807B685B689B00B2FBF3F3234AA2FB0323D6
S315080088905B091901BA6813469B0013449A001A44E7
S315080088A07B685B689B00B2FBF3F21B4BA3FB0203DE
S315080088B05B09642000FB03F3D31A1B013233164A03
S315080088C0A2FB03235B0903F0F0031944BA681346B5
S315080088D09B0013449A001A447B685B689B00B2FBB2
S315080088E0F3F20D4BA3FB02035B09642000FB03F3C1
S315080088F0D31A1B013233084AA2FB03235B0903F090
S315080089000F027B681B680A449A6000BF1037BD4691
S3150800891080BD00BF003801401F85EB51014B186828
S31508008920704700BF1C00002070B500250C4E0D4C8A
S31508008930A41BA410A54209D100F034FC00250A4E58
S315080089400A4CA41BA410A54205D170BD56F82530C3
S3150800895098470135EEE756F8253098470135F2E78E
S315080089604892000848920008489200084C9200086D
S3150800897003460244934200D1704703F8011BF9E706
S315080089800EB46FF0004100B59CB01DAB0290069086
S31508008990079104910848094953F8042B0591006882
S315080089A002A9019300F066F80022029B1A701CB017
S315080089B05DF804EB03B070471C0000200802FFFFB7
S315080089C02DE9F0478E6882469E420C4690469946A7
S315080089D037D88A8912F4906F31D00223256809693D
S315080089E06F1A656905EB450595FBF3F509F1010372
S315080089F03B449D4238BF1D46530530D5294600F0F5
S31508008A0037FB064650B90C234FF0FF30CAF8003042
S31508008A10A38943F04003A381BDE8F0873A4621695C
S31508008A2000F0B6FAA38923F4906343F08003A38188
S31508008A3026613E4426604E466561ED1BA5604E459F
S31508008A4000D94E4632464146206800F0ACFAA36883
S31508008A5000209B1BA36023681E442660DCE72A4689
S31508008A6000F060FB06460028E2D12169504600F076
S31508008A70B3FAC8E72DE9F04F1D468B899DB01F064E
S31508008A8080460C4616460FD50B696BB9402100F097
S31508008A90EFFA2060206128B90C23C8F800304FF09F
S31508008AA0FF30C8E0402363610023099320238DF833
S31508008AB0293030234FF0010B8DF82A3003953746BD
S31508008AC03D4615F8013B0BB1252B3ED1B7EB060AFF
S31508008AD00BD05346324621464046FFF771FF013018
S31508008AE000F0A480099B534409933B78002B00F0BF
S31508008AF09D8000234FF0FF32CDE9052304930793A9
S31508008B008DF853301A932F46052217F8011B504843
S31508008B1000F030FA049BD0B9D90644BF20228DF85C
S31508008B2053201A0744BF2B228DF853202A782A2A65
S31508008B3015D02F4600200A25079A394611F8013B19
S31508008B40303B092B4DD9B8B10FE02F46B8E7404A5C
S31508008B503D46801A0BFA00F018430490D3E7039AAF
S31508008B60111D12680391002A01DB079204E05242A4
S31508008B7043F00203079204933B782E2B0CD17B78A3
S31508008B802A2B33D1039B02371A1D1B680392002B2D
S31508008B90B8BF4FF0FF3305932E4D03223978284688
S31508008BA000F0E8F938B14023401B03FA00F0049BB3
S31508008BB00137034304933978062227487E1C8DF82B
S31508008BC0281000F0D7F9002838D0244B13BB039B94
S31508008BD0073323F0070308330393099B4B44099390
S31508008BE06DE705FB023201200F46A6E700230A259A
S31508008BF0194601370593384610F8012B303A092AE9
S31508008C0003D9002BC8D00591C6E705FB012101232E
S31508008C100746F0E703AB00932246114B04A94046EA
S31508008C20AFF30080B0F1FF3F8146D6D1A3895B063A
S31508008C303FF535AF09981DB0BDE8F08F03AB00933B
S31508008C402246074B04A9404600F082F8EAE700BF2F
S31508008C50149200081A9200081E92000800000000EC
S31508008C60C18900082DE9F04791461F468A680B69B5
S31508008C7006469342B8BF1346C9F8003091F8432018
S31508008C800C46DDF8208012B10133C9F8003023689C
S31508008C90990642BFD9F800300233C9F80030256872
S31508008CA015F0060507D104F1190AE368D9F800207A
S31508008CB09B1AAB4229DC94F843302268003318BF6C
S31508008CC0012392062ED404F1430239463046C047A2
S31508008CD0013021D02368E56803F00603042B18BF8A
S31508008CE00025D9F800204FF0000908BFAD1AA3687F
S31508008CF0226908BF25EAE5759342C4BF9B1AED1899
S31508008D001A344D451AD1002008E001235246394647
S31508008D103046C047013003D14FF0FF30BDE8F08739
S31508008D200135C2E73020E11881F843005A1C94F84F
S31508008D3045102244023382F84310C4E70123224631
S31508008D4039463046C0470130E6D009F10109D8E76F
S31508008D502DE9F04301F1430C0C46097E85B06E29D6
S31508008D601746064698460C9A00F0B38022D863291F
S31508008D7036D00AD8002900F0B980582900F0838037
S31508008D8004F1420584F8421032E0642901D06929C9
S31508008D90F6D120681368050603F104012AD51B6875
S31508008DA01160002B03DA2D225B4284F843206F48BA
S31508008DB00A2239E0732900F09D8008D86F2920D04F
S31508008DC07029DDD1236843F02003236003E0752969
S31508008DD017D07829D4D17823654884F8453055E0EA
S31508008DE0136804F14205191D1B68116084F84230A6
S31508008DF001238CE01B6810F0400F116018BF1BB2EE
S31508008E00CFE713682568181D1060280601D51B686A
S31508008E1002E06806FBD51B886F2914BF0A220822C0
S31508008E205248002184F843106568002DA560C0F2F9
S31508008E309580216821F004012160002B3DD1002D89
S31508008E4040F08E806546082A0BD12368DB0708D5D3
S31508008E50236962689A42DEBF302305F8013C05F1B2
S31508008E60FF35ACEB05032361CDF800803B4603AA2A
S31508008E7021463046FFF7F6FE01304DD14FF0FF3060
S31508008E8005B0BDE8F083394884F8451013682168B1
S31508008E901D1D1B6815600A060BD5CA0744BF41F09D
S31508008EA0200121601BB9226822F0200222601022CC
S31508008EB0B7E74D0648BF9BB2EFE76546B3FBF2F14D
S31508008EC002FB1133C35C05F8013D0B460029F5D1B9
S31508008ED0B9E713682568181D6169106028061B68BC
S31508008EE001D5196002E06A06FBD51980002365469C
S31508008EF02361B9E71368191D11601D6862680021AE
S31508008F00284600F037F808B1401B606063682361A3
S31508008F10002384F84330A7E723692A4639463046B2
S31508008F20C0470130AAD023689B0713D4E068039B87
S31508008F309842B8BF1846A3E701234A463946304641
S31508008F40C04701309AD00135E368039A9B1AAB42B1
S31508008F50F2DCEBE7002504F11909F5E7002BACD1A3
S31508008F60037804F1420584F842306CE7259200083C
S31508008F703692000810B5C9B202449042034601D1A0
S31508008F80002303E01C7801308C42F6D1184610BD48
S31508008F9010B5431E0A44914200D110BD11F8014B89
S31508008FA003F8014FF7E7884210B501EB020307D82B
S31508008FB0421E99420AD011F8014B02F8014FF8E710
S31508008FC08342F5D98118D21AD34200D110BD13F8BD
S31508008FD0014D01F8014DF7E738B50546002943D09C
S31508008FE051F8043C0C1F002BB8BFE41800F0D0F869
S31508008FF01E4A1368104633B9636014602846BDE8F4
S31508009000384000F0C6B8A3420BD9216862189342CB
S3150800901001BF1A685B685218226063600460EDE756
S3150800902013465A680AB1A242FAD919685818A042D2
S315080090300BD120680144581882421960DED11068A5
S315080090405268014419605A60D8E702D90C232B608C
S31508009050D4E7206821188A4201BF116852680918A6
S31508009060216062605C60C9E738BD00BFB4000020BB
S3150800907070B5CD1C25F0030508350C2D38BF0C2519
S31508009080002D064601DBA94203D90C2333600020D4
S3150800909070BD00F07DF8214A1468214691B9204C2C
S315080090A023681BB9304600F063F82060294630462D
S315080090B000F05EF8431C24D10C233046336000F0E0
S315080090C068F8E4E70B685B1B18D40B2B0FD90B6009
S315080090D0CC18CD50304600F05CF804F10B00231D87
S315080090E020F00700C31AD3D05A42E250D0E74B68A3
S315080090F08C4216BF636013600C46EBE70C46496862
S31508009100CCE7C41C24F00304A04205D0211A30463B
S3150800911000F02EF80130CFD02560DBE7B400002040
S31508009120B8000020F8B5074614460E4621B9BDE832
S31508009130F8401146FFF79CBF22B9FFF74DFF2546B9
S315080091402846F8BD00F026F8A0420FD22146384638
S31508009150FFF78EFF05460028F2D031462246FFF774
S3150800916017FF31463846FFF737FFE9E73546E7E7A1
S3150800917038B50023054C054608462360FCF724FB52
S31508009180431C02D1236803B12B6038BDEC020020D2
S315080091907047704751F8043C181F002BBCBF0B588A
S315080091A0C0187047F8B500BFF8BC08BC9E467047A3
S311080091B0F8B500BFF8BC08BC9E46704726
S315080091BC0A0D4A756D70696E6720746F20626F6F41
S315080091CC746C6F616465722E2E2E0A0D00000000F9
S315080091DC4D3A2025642025640A0D00000203040577
S315080091EC060708090A0B0C0D0E0F101001020000D9
S315080091FC000000000000000001020304060708092D
S3150800920C0000000001020304232D302B2000686C9B
S3150800921C4C0065666745464700303132333435367F
S3150800922C37383941424344454600303132333435B8
S3110800923C363738396162636465660000E5
S309080092483541000896
S3090800924C11410008B6
S31508009250000000000000E03F000000000000494058
S315080092600024F40010000000010000002000002087
S3150800927000000000000000000000000000000000E0
S3150800928000000000000000000000000000000000D0
S3150800929000000000000000000000000000000000C0
S315080092A000000000000000000000000000000000B0
S315080092B000000000000000000000000000000000A0
S315080092C00000000000000000000000000000000090
S70508005E751F
