S0120000626F6F746C6F616465722E73726563E7
S3150800000000500020710C0008410600084D06000843
S3150800001053060008590600085F060008000000009D
S31508000020000000000000000000000000650600084F
S3150800003071060008000000007D0600088906000811
S31508000040B90C0008B90C0008B90C0008B90C00086E
S31508000050B90C0008B90C0008B90C0008B90C00085E
S31508000060B90C0008B90C0008B90C0008B90C00084E
S31508000070B90C0008B90C0008B90C0008B90C00083E
S31508000080B90C0008B90C0008B90C0008B90C00082E
S31508000090B90C0008B90C0008B90C0008B90C00081E
S315080000A0B90C0008B90C0008B90C0008B90C00080E
S315080000B0B90C0008B90C0008B90C0008B90C0008FE
S315080000C0B90C0008B90C0008B90C0008B90C0008EE
S315080000D0B90C0008B90C0008B90C0008B90C0008DE
S315080000E0B90C0008B90C0008B90C0008000000009B
S315080000F000000000000000000000000000000000F2
S3110800010000000000000000005FF808F195
S3150800010C10B5054C237833B9044B13B10448AFF337
S3150800011C00800123237010BD100000200000000091
S3150800012C9024000808B5034B1BB103490348AFF3E9
S3150800013C008008BD00000000140000209024000870
S3150800014C80B500AF064B074A1A60054800F013FF46
S3150800015C0346002B01D000F034FA00BF80BD00BF67
S3150800016C340000200030024080B485B000AF7860BF
S3150800017C7B681B68094A93420BD1094B5B69084A91
S3150800018C43F040035361064B5B6903F04003FB6085
S3150800019CFB6800BF1437BD4680BC70470030024070
S315080001AC0010024080B588B000AF786000F070FF90
S315080001BCFF23FB770023BB600023FB607B687B6116
S315080001CC01233B617A680C4B9B1A9B0ABB6107F1AE
S315080001DC080207F10C031146184601F041F80346CC
S315080001EC002B01D10023FB7700F078FFFB7F184624
S315080001FC2037BD4680BD00BFFFFF010890B587B00C
S3150800020C00AFF860B9607A600023FB7500F040FF18
S3150800021C00233B612FE0FB681E4A934204D9FB7D01
S3150800022C43F00103FB7523E03B699B00BA68134452
S3150800023C1B684FF000041A462346F968022000F0A2
S3150800024CB7FE0346002B03D0FB7D43F00203FB7578
S3150800025C3B699B00BA6813441A68FB681B689A4288
S3150800026C03D0FB7D43F00403FB75FB680433FB608A
S3150800027C3B6901333B613A697B689A4202D2FB7D42
S3150800028C002BC8D000F02AFFFB7D18461C37BD464C
S3150800029C90BD00BFEEFF010880B582B000AF084BD9
S315080002AC1B687B6000F01AFD064B1B683B603B68BD
S315080002BC83F308887B68984700BF0837BD4680BD1E
S315080002CC044000080040000880B588B000AF07F16C
S315080002DC100300221A605A609A60DA602F4B9B69E9
S315080002EC2E4A43F0100393612C4B9B6903F01003C1
S315080002FCFB60FB68294B9B69284A43F020039361F2
S3150800030C264B9B6903F02003BB60BB68234B9B6998
S3150800031C224A43F004039361204B9B6903F00403C0
S3150800032C7B607B681D4B9B691C4A43F008039361F1
S3150800033C1A4B9B6903F008033B603B6801224FF498
S3150800034C0051174801F08EF94FF400533B61012315
S3150800035C7B610023BB610223FB6107F1100319467D
S3150800036C0F4801F025F84FF6FF133B6103237B6119
S3150800037C07F1100319460B4801F01AF84FF6FF73EC
S3150800038C3B6103237B6107F110031946064801F00C
S3150800039C0FF800BF2037BD4680BD00BF00100240D5
S315080003AC0010014000080140000C014080B586B0E1
S315080003BC00AF00F07DFC00F0BFF8FFF785FFFFF7F4
S315080003CCBFFE00F095F900F0E9FC78614FF47A73FA
S315080003DC1A225149514801F0C6FD00F0DFFC38617C
S315080003EC3B694F4AA2FB03239B0903F00103002B2D
S315080003FC06D000224FF400514A4801F033F905E0C3
S3150800040C01224FF40051474801F02CF97B6903F59A
S3150800041C1C5310333A699A420BD94FF47A73262235
S3150800042C41493E4801F09FFD00F0B8FC7861FFF7A2
S3150800043C33FF391D64230A22384801F02DFE3B7917
S3150800044C463B242BC9D801A252F823F0ED04000828
S3150800045CE7030008E7030008E70300080F05000890
S3150800046CE7030008E7030008E7030008E7030008AA
S3150800047CE7030008E7030008E7030008E70300089A
S3150800048CE7030008E7030008E7030008E70300088A
S3150800049CE7030008E7030008E7030008E70300087A
S315080004ACE7030008E7030008E7030008E70300086A
S315080004BCE7030008E7030008E7030008E70300085A
S315080004CCE7030008E7030008E7030008ED04000843
S315080004DCE7030008E7030008E70300080F05000810
S315080004EC4FF47A73172211490C4801F03CFD00F0C1
S315080004FC75F94FF47A730C220D49084801F033FD4F
S3150800050C09E04FF47A731D220A49044801F02BFDC1
S3150800051CFFF7C2FE00BF60E7A82400083C000020D5
S3150800052CD34D621000100140C4240008EC240008C6
S3150800053C042500081425000880B590B000AF07F113
S3150800054C180328220021184601F094FF3B1D0022AF
S3150800055C1A605A609A60DA601A610123BB614FF41B
S3150800056C8033FB6100233B620123BB6202237B635E
S3150800057C4FF48033BB634FF4E013FB6307F11803A6
S3150800058C184601F087F80346002B01D000F019F83D
S3150800059C0F237B600223BB600023FB604FF4806350
S315080005AC3B6100237B613B1D0221184601F0F2FAE0
S315080005BC0346002B01D000F004F800BF4037BD46B7
S315080005CC80BD80B400AF00BFBD4680BC704700003C
S315080005DC80B485B000AF154B9B69144A43F00103F0
S315080005EC9361124B9B6903F00103BB60BB680F4B0D
S315080005FCDB690E4A43F08053D3610C4BDB6903F07D
S3150800060C80537B607B680A4B5B68FB60FB6823F056
S3150800061CE063FB60FB6843F08063FB60044AFB689D
S3150800062C536000BF1437BD4680BC704700100240AB
S3150800063C0000014080B400AF00BFBD4680BC7047C7
S3150800064C80B400AFFEE780B400AFFEE780B400AF1D
S3150800065CFEE780B400AFFEE780B400AF00BFBD462E
S3150800066C80BC704780B400AF00BFBD4680BC7047E5
S3150800067C80B400AF00BFBD4680BC704780B500AFE4
S3150800068C00F07AFB00BF80BD80B400AF154B1B6829
S3150800069C144A43F001031360124B5A681149124B62
S315080006AC13404B600F4B1B680E4A23F0847323F4DC
S315080006BC803313600B4B1B680A4A23F480231360A0
S315080006CC084B5B68074A23F4FE035360054B4FF44B
S315080006DC1F029A60054B4FF000629A6000BFBD4638
S315080006EC80BC7047001002400000FFF800ED00E0E7
S315080006FC80B500AF114B124A1A60104B4FF4E13219
S3150800070C5A600E4B00229A600C4B0022DA600B4B97
S3150800071C00221A61094B0C225A61084B00229A6175
S3150800072C064B0022DA61054801F0D0FB0346002B84
S3150800073C01D0FFF746FF00BF80BD00BF3C0000207C
S3150800074C0038014080B588B000AF786007F1100317
S3150800075C00221A605A609A60DA607B681B681C4A29
S3150800076C934231D11B4B9B691A4A43F480439361DC
S3150800077C184B9B6903F48043FB60FB68154B9B691C
S3150800078C144A43F004039361124B9B6903F0040368
S3150800079CBB60BB684FF400733B6102237B61032388
S315080007ACFB6107F1100319460B4800F001FE4FF4E4
S315080007BC80633B6100237B610023BB6107F1100357
S315080007CC1946054800F0F4FD00BF2037BD4680BD2C
S315080007DC00380140001002400008014080B582B084
S315080007EC00AF00237B7100233B71634B00221A7008
S315080007FC624B01221A70624B624A1A60B2E00023FD
S3150800080CBB70B91C4FF47A7301225F4801F044FCA3
S3150800081C0346FB71FB79002B0DD0574B1B78002B2D
S3150800082C09D14323FB70F91C4FF47A7301225648FD
S3150800083C01F099FB0DE0FB79002B0AD04E4B1B7887
S3150800084C012B06D13B1D0321184600F0CFF90346B0
S3150800085C7B71FF23BB71BB78013B172B77D801A2A1
S3150800086C52F823F0D1080008D10800085B090008E3
S3150800087C210900085B0900085B0900085B090008E8
S3150800088C5B0900085B0900085B0900085B0900089E
S3150800089C5B0900085B0900085B0900085B0900088E
S315080008AC5B0900085B0900085B0900085B0900087E
S315080008BC5B0900085B0900085B0900085B0900086E
S315080008CC55090008BB78184600F09EF80346BB711C
S315080008DCBB79002B09D10623FB70F91C4FF47A73EC
S315080008EC0122294801F03FFB3CE0BB79082B09D1D2
S315080008FC03233B713B1D0321184600F077F9034689
S3150800090C7B712FE03B1D0321184600F06FF9034657
S3150800091C7B7127E00623FB70F91C4FF47A730122CE
S3150800092C194801F020FB4FF47A731522174916481B
S3150800093C01F019FB4FF47A7320221549124801F07D
S3150800094C12FBFFF7A9FC0DE0FF237B710AE0FB798C
S3150800095C002B06D13B1D0321184600F047F9034628
S3150800096C7B7100BF7B79DBB2002B3FF448AF00BF2D
S3150800097C0837BD4680BD00BF3000002004000020AB
S3150800098C2C000020004000083C00002034250008FC
S3150800099C4C25000880B485B000AF78600B467B8088
S315080009AC0023FB8126E07B88013B7B807B685A1CF5
S315080009BC7A601B781B021AB2B7F90E3053401BB279
S315080009CCFB8100237B7312E0B7F90E30002B08DA93
S315080009DCFB895B009BB283F4815383F00103FB8193
S315080009EC02E0FB895B00FB817B7B01337B737B7BA2
S315080009FC072BE9D97B88002BD5D1FB8918461437E8
S31508000A0CBD4680BC7047000080B5ADF5836D00AF60
S31508000A1C0246FB1D1A70002387F817340023A7F823
S31508000A2C1434FB1D1B78012B03D18023A7F814342F
S31508000A3C0BE0FB1D1B78022B04D14FF48063A7F83F
S31508000A4C143402E0FF2387F81734002387F813348D
S31508000A5C07F20C414FF47A7302225F4801F01CFB33
S31508000A6C03461A4697F81334134387F81334B7F822
S31508000A7C142407F10C014FF47A73574801F00CFB58
S31508000A8C03461A4697F81334134387F8133407F1B9
S31508000A9C08014FF47A7302224F4801F0FDFA034617
S31508000AAC1A4697F81334134387F8133407F10803D7
S31508000ABC1B781B021AB207F108035B781BB21343A7
S31508000ACC1BB2A7F81034B7F8142407F10C03114617
S31508000ADC1846FFF75FFF0346A7F80E3497F813344A
S31508000AEC002B05D097F8173443F0040387F817340E
S31508000AFC97F81734002B13D1384B1B78002B0FD1D2
S31508000B0C3748FFF74FFB0346002B03D1334B012223
S31508000B1C1A7005E097F8173443F0080387F817346A
S31508000B2C97F81734002B25D197F80C242D4B1B78E6
S31508000B3C9A4205D097F8173443F0020387F817340E
S31508000B4C97F80C341A4697F80D341344FF2B05D036
S31508000B5C97F8173443F0020387F81734B7F80E24BE
S31508000B6CB7F810349A4205D097F8173443F00103B6
S31508000B7C87F8173497F81734002B14D11A4B1868C2
S31508000B8CB7F814349B089BB21A4607F10C0319469E
S31508000B9CFFF734FB0346002B05D097F8173443F0C0
S31508000BAC080387F8173497F81734002B0CD10D4B1C
S31508000BBC1B780133DAB20B4B1A70B7F814240A4BAC
S31508000BCC1B681344084A136097F81734184607F538
S31508000BDC8367BD4680BD00BF3C0000203000002066
S31508000BEC00400008040000202C00002080B584B0CA
S31508000BFC00AF78600B46FB700023FB737B681B7891
S31508000C0C0133DAB27B681A707B681B78FA789A42D9
S31508000C1C14D81823BB7307F10E014FF47A7301220B
S31508000C2C0F4801F0A0F907F10E014FF47A7301226F
S31508000C3C0B4801F098F9FF23FB730BE01523BB73E4
S31508000C4C07F10E014FF47A730122054801F08BF96E
S31508000C5C0023FB73FB7B18461037BD4680BD00BFCF
S31508000C6C3C000020002103E00B4B5B584350043139
S31508000C7C0A480B4B42189A42F6D30A4A02E000235A
S31508000C8C42F8043B084B9A42F9D3FFF7FDFC01F0F6
S31508000C9CCDFBFFF78BFB7047A4250008000000204E
S31508000CAC1000002010000020A0000020FEE7000025
S31508000CBC80B500AF084B1B68074A43F01003136056
S31508000CCC032000F025F9002000F026F8FFF780FC39
S31508000CDC0023184680BD00BF0020024080B500AF37
S31508000CEC094B4FF0FF32DA60074B00221A61064BAC
S31508000CFC4FF0FF32DA60044B0022DA6000F006F897
S31508000D0C0023184680BD00BF0010024080B400AF17
S31508000D1C00BFBD4680BC704780B582B000AF786016
S31508000D2C124B1A68124B1B7819464FF47A73B3FB9D
S31508000D3CF1F3B2FBF3F3184600F011F90346002B56
S31508000D4C01D001230EE07B680F2B0AD800227968A4
S31508000D5C4FF0FF3000F0E7F8064A7B681360002373
S31508000D6C00E0012318460837BD4680BD0000002068
S31508000D7C0C0000200800002080B400AF054B1B783F
S31508000D8C1A46054B1B681344034A136000BFBD463D
S31508000D9C80BC70470C0000207C00002080B400AF9B
S31508000DAC024B1B681846BD4680BC70477C00002069
S31508000DBC80B485B000AF78607B6803F00703FB60EE
S31508000DCC0C4BDB68BB60BA684FF6FF031340BB607D
S31508000DDCFB681A02BB68134343F0BF6343F4003342
S31508000DECBB60044ABB68D36000BF1437BD4680BCE1
S31508000DFC704700BF00ED00E080B400AF044BDB6821
S31508000E0C1B0A03F007031846BD4680BC704700BF93
S31508000E1C00ED00E080B483B000AF03463960FB7187
S31508000E2C97F90730002B0ADB3B68DAB20C4997F9BD
S31508000E3C07301201D2B20B4483F800230AE03B6850
S31508000E4CDAB20849FB7903F00F03043B1201D2B25C
S31508000E5C0B441A7600BF0C37BD4680BC704700BFE2
S31508000E6C00E100E000ED00E080B489B000AFF86066
S31508000E7CB9607A60FB6803F00703FB61FB69C3F191
S31508000E8C0703042B28BF0423BB61FB690433062B19
S31508000E9C02D9FB69033B00E000237B614FF0FF326C
S31508000EACBB6902FA03F3DA43BB681A407B699A40BA
S31508000EBC4FF0FF317B6901FA03F3D9437B680B408A
S31508000ECC134318462437BD4680BC704780B582B09C
S31508000EDC00AF78607B68013BB3F1807F01D30123B7
S31508000EEC0FE00A4A7B68013B53600F214FF0FF3035
S31508000EFCFFF790FF054B00229A60044B07221A60F5
S31508000F0C002318460837BD4680BD00BF10E000E038
S31508000F1C80B582B000AF78607868FFF749FF00BFEC
S31508000F2C0837BD4680BD80B586B000AF0346B960AC
S31508000F3C7A60FB7300237B61FFF75EFF78617A6842
S31508000F4CB9687869FFF790FF024697F90F30114692
S31508000F5C1846FFF75FFF00BF1837BD4680BD80B542
S31508000F6C82B000AF78607868FFF7B0FF0346184682
S31508000F7C0837BD4680BD80B582B000AF78607B6807
S31508000F8C002B01D101230EE07B685B79DBB2002BC9
S31508000F9C05D17B6800221A717868FFF7E5F87B683B
S31508000FAC01225A71002318460837BD4680BD000039
S31508000FBCF0B587B000AFF860B960C7E90023012324
S31508000FCCFB750023BB7500237B752F4B1B7E012BF2
S31508000FDC01D1022354E02C4B01221A764CF25030E4
S31508000FEC00F0A8F80346FB75FB7D002B44D1FB6883
S31508000FFC012B02D101237B7507E0FB68022B02D17A
S3150800100C02237B7501E004237B750023BB752DE059
S3150800101CBB7D5A00BB6802EB030CBB7D1901D7E9F3
S3150800102C0023C1F12006A1F1200022FA01F403FAEB
S3150800103C06F6344323FA00F0044323FA01F5A3B267
S3150800104C1946604600F05AF84CF2503000F072F827
S3150800105C0346FB750D4B1B690C4A23F00103136100
S3150800106CFB7D002B07D1BB7D0133BB75BA7D7B7D20
S3150800107C9A42CDD300E000BF034B00221A76FB7DC3
S3150800108C18461C37BD46F0BD8000002000200240E3
S3150800109C80B483B000AF0023FB710D4B1B6903F0C2
S315080010AC8003002B0DD00A4B0A4A5A60084B0A4A91
S315080010BC5A60074B1B6903F08003002B01D00123F0
S315080010CCFB71FB7918460C37BD4680BC704700BFD0
S315080010DC0020024023016745AB89EFCD80B400AFF1
S315080010EC054B1B69044A43F0800313610023184619
S315080010FCBD4680BC704700BF0020024080B483B058
S3150800110C00AF78600B467B80084B0022DA61084BEF
S3150800111C1B69074A43F0010313617B687A881A80B6
S3150800112C00BF0C37BD4680BC704700BF800000204E
S3150800113C0020024080B584B000AF7860FFF72EFE21
S3150800114CF86010E07B68B3F1FF3F0CD07B68002B8E
S3150800115C07D0FFF723FE0246FB68D31A7A689A4231
S3150800116C01D2032325E0154BDB6803F00103002BA2
S3150800117CE8D1124BDB6803F02003002B02D00F4B8F
S3150800118C2022DA600D4BDB6803F01003002B0BD121
S3150800119C0A4BDB6903F00103002B05D1074BDB680F
S315080011AC03F00403002B03D000F00AF8012300E037
S315080011BC002318461037BD4680BD00BF00200240EC
S315080011CC80B483B000AF00237B60234BDB6803F04D
S315080011DC1003002B09D0214BDB6943F002031F4A8D
S315080011ECD3617B6843F010037B601B4BDB6803F011
S315080011FC0403002B09D0194BDB6943F00103174A8A
S3150800120CD3617B6843F004037B60134BDB6903F003
S3150800121C0103002B0BD0114BDB6943F004030F4A77
S3150800122CD3610D4BDB690C4A23F00103D3617B6850
S3150800123C40F20112934206D1074BDB69064A23F0AA
S3150800124C0103D36102E0044A7B68D36000BF0C3704
S3150800125CBD4680BC704700BF0020024080000020BD
S3150800126C80B584B000AF786039600123FB73002326
S3150800127CBB602F4B1B7E012B01D1022353E02C4B59
S3150800128C01221A767B681B68022B16D14CF2503059
S3150800129CFFF750FF0346002B41D1012000F04CF814
S315080012AC4CF25030FFF746FF0346FB73214B1B6984
S315080012BC204A23F00403136131E04CF25030FFF757
S315080012CC39FF0346002B2AD13B684FF0FF321A60D0
S315080012DC7B689B68BB6019E0B86800F049F84CF26B
S315080012EC5030FFF727FF0346FB73124B1B69114A55
S315080012FC23F002031361FB7B002B03D03B68BA680F
S3150800130C1A600CE0BB6803F58063BB607B68DB681E
S3150800131C9A027B689B681344BA689A42DCD3044BDE
S3150800132C00221A76FB7B18461037BD4680BD00BFD7
S3150800133C800000200020024080B483B000AF7860A3
S3150800134C094B0022DA61094B1B69084A43F004036E
S3150800135C1361064B1B69054A43F04003136100BF32
S3150800136C0C37BD4680BC7047800000200020024028
S3150800137C80B483B000AF78600B4B0022DA610B4B5C
S3150800138C1B690A4A43F002031361084A7B685361D6
S3150800139C064B1B69054A43F04003136100BF0C3723
S315080013ACBD4680BC704700BF80000020002002406C
S315080013BC80B48BB000AF7860396000237B62002361
S315080013CC3B6227E101227B6A02FA03F3FB613B6865
S315080013DC1B68FA691340BB61BA69FB699A4240F00B
S315080013EC16813B685B68122B34D0122B0DD8022B56
S315080013FC2BD0022B04D8002B31D0012B1CD048E063
S3150800140C032B43D0112B1BD043E0894A934226D099
S3150800141C874A934206D8874A934220D0864A9342F3
S3150800142C1DD036E0854A934219D0854A934216D088
S3150800143C844A934213D02CE03B68DB683B6228E075
S3150800144C3B68DB6804333B6223E03B68DB680833A4
S3150800145C3B621EE03B68DB680C333B6219E03B6879
S3150800146C9B68002B02D104233B6212E03B689B6805
S3150800147C012B05D108233B627B68FA691A6108E0DF
S3150800148C08233B627B68FA695A6102E000233B62D7
S3150800149C00BFBB69FF2B01D87B6801E07B6804336E
S315080014AC7B61BB69FF2B02D87B6A9B0002E07B6AD7
S315080014BC083B9B003B617B691A680F213B6901FA63
S315080014CC03F3DB431A40396A3B6901FA03F31A43FF
S315080014DC7B691A603B685B6803F08053002B00F04D
S315080014EC9680594B9B69584A43F001039361564BB6
S315080014FC9B6903F00103BB60BB68544A7B6A9B0873
S3150800150C023352F82330FB607B6A03F003039B001B
S3150800151C0F2202FA03F3DB43FA681340FB607B687D
S3150800152C4B4A934213D07B684A4A93420DD07B6848
S3150800153C494A934207D07B68484A934201D1032310
S3150800154C06E0042304E0022302E0012300E0002362
S3150800155C7A6A02F0030292009340FA681343FB601E
S3150800156C3A497B6A9B080233FA6841F823203B68A0
S3150800157C5B6803F48033002B06D0394B1A6838495C
S3150800158CBB6913430B6006E0354B1A68BB69DB4332
S3150800159C334913400B603B685B6803F40033002B3C
S315080015AC06D02F4B5A682E49BB6913434B6006E08D
S315080015BC2B4B5A68BB69DB43294913404B603B6884
S315080015CC5B6803F48013002B06D0254B9A682449D4
S315080015DCBB6913438B6006E0214B9A68BB69DB43F6
S315080015EC1F4913408B603B685B6803F40013002BA0
S315080015FC06D01B4BDA681A49BB691343CB6006E065
S3150800160C174BDA68BB69DB4315491340CB607B6A19
S3150800161C01337B623B681A687B6A22FA03F3002B58
S3150800162C7FF4D0AE00BF2C37BD4680BC704700BFD8
S3150800163C00002110000011100000121000003110DB
S3150800164C0000321000002210001002400000014079
S3150800165C00080140000C0140001001400014014034
S3150800166C0004014080B483B000AF78600B467B80E1
S3150800167C13467B707B78002B03D07A887B681A61BB
S3150800168C03E07B881A047B681A6100BF0C37BD46D9
S3150800169C80BC704780B586B000AF78607B68002B3D
S315080016AC01D101236CE27B681B6803F00103002B54
S315080016BC00F08780924B5B6803F00C03042B0CD06C
S315080016CC8F4B5B6803F00C03082B12D18C4B5B68B1
S315080016DC03F48033B3F5803F0BD1894B1B6803F4B5
S315080016EC0033002B6CD07B685B68002B68D1012318
S315080016FC46E27B685B68B3F5803F06D1804B1B6876
S3150800170C7F4A43F4803313602EE07B685B68002BBA
S3150800171C0CD17B4B1B687A4A23F480331360784BC5
S3150800172C1B68774A23F4802313601DE07B685B688B
S3150800173CB3F5A02F0CD1724B1B68714A43F4802366
S3150800174C13606F4B1B686E4A43F4803313600BE0CF
S3150800175C6B4B1B686A4A23F480331360684B1B680F
S3150800176C674A23F4802313607B685B68002B13D0CD
S3150800177CFFF714FB386108E0FFF710FB02463B69DC
S3150800178CD31A642B01D90323FAE15D4B1B6803F4C6
S3150800179C0033002BF0D014E0FFF700FB386108E0AB
S315080017ACFFF7FCFA02463B69D31A642B01D90323CB
S315080017BCE6E1534B1B6803F40033002BF0D100E031
S315080017CC00BF7B681B6803F00203002B63D04C4BED
S315080017DC5B6803F00C03002B0BD0494B5B6803F0DA
S315080017EC0C03082B1CD1464B5B6803F48033002B87
S315080017FC16D1434B1B6803F00203002B05D07B68FC
S3150800180C1B69012B01D00123BAE13D4B1B6823F060
S3150800181CF8027B685B69DB00394913430B603AE0D5
S3150800182C7B681B69002B20D0364B01221A60FFF708
S3150800183CB5FA386108E0FFF7B1FA02463B69D31AE4
S3150800184C022B01D903239BE12D4B1B6803F00203E2
S3150800185C002BF0D02A4B1B6823F0F8027B685B69D7
S3150800186CDB00274913430B6015E0264B00221A6050
S3150800187CFFF794FA386108E0FFF790FA02463B69DD
S3150800188CD31A022B01D903237AE11D4B1B6803F0EB
S3150800189C0203002BF0D17B681B6803F00803002BAE
S315080018AC3AD07B689B69002B19D0174B01221A601A
S315080018BCFFF774FA386108E0FFF770FA02463B69DD
S315080018CCD31A022B01D903235AE10D4B5B6A03F099
S315080018DC0203002BF0D0012000F0DAFA1CE00A4BC8
S315080018EC00221A60FFF75AFA38610FE0FFF756FA2A
S315080018FC02463B69D31A022B08D9032340E100BFE1
S3150800190C0010024000004242800442429E4B5B6A31
S3150800191C03F00203002BE9D17B681B6803F0040370
S3150800192C002B00F0A6800023FB75974BDB6903F0B0
S3150800193C8053002B0DD1944BDB69934A43F08053AB
S3150800194CD361914BDB6903F08053BB60BB68012301
S3150800195CFB758E4B1B6803F48073002B18D18B4BCD
S3150800196C1B688A4A43F480731360FFF717FA3861C9
S3150800197C08E0FFF713FA02463B69D31A642B01D920
S3150800198C0323FDE0814B1B6803F48073002BF0D016
S3150800199C7B68DB68012B06D17B4B1B6A7A4A43F0C2
S315080019AC010313622DE07B68DB68002B0CD1764BA8
S315080019BC1B6A754A23F001031362734B1B6A724A3E
S315080019CC23F0040313621CE07B68DB68052B0CD13F
S315080019DC6D4B1B6A6C4A43F0040313626A4B1B6A11
S315080019EC694A43F0010313620BE0674B1B6A664AAC
S315080019FC23F001031362644B1B6A634A23F0040346
S31508001A0C13627B68DB68002B15D0FFF7C7F93861C2
S31508001A1C0AE0FFF7C3F902463B69D31A41F288324A
S31508001A2C934201D90323ABE0574B1B6A03F002031D
S31508001A3C002BEED014E0FFF7B1F938610AE0FFF796
S31508001A4CADF902463B69D31A41F28832934201D961
S31508001A5C032395E04C4B1B6A03F00203002BEED1D3
S31508001A6CFB7D012B05D1484BDB69474A23F0805394
S31508001A7CD3617B68DB69002B00F08180424B5B6885
S31508001A8C03F00C03082B61D07B68DB69022B46D16B
S31508001A9C3F4B00221A60FFF781F9386108E0FFF71F
S31508001AAC7DF902463B69D31A022B01D9032367E059
S31508001ABC354B1B6803F00073002BF0D17B681B6A4F
S31508001ACCB3F5803F08D1304B5B6823F400327B6852
S31508001ADC9B682D4913434B602B4B5B6823F474129C
S31508001AEC7B68196A7B685B6A0B43274913434B600F
S31508001AFC274B01221A60FFF751F9386108E0FFF706
S31508001B0C4DF902463B69D31A022B01D9032337E058
S31508001B1C1D4B1B6803F00073002BF0D02FE01C4BF9
S31508001B2C00221A60FFF73AF9386108E0FFF736F930
S31508001B3C02463B69D31A022B01D9032320E0124B28
S31508001B4C1B6803F00073002BF0D118E07B68DB6987
S31508001B5C012B01D1012313E00B4B5B68FB60FB687F
S31508001B6C03F480327B681B6A9A4206D1FB6803F43D
S31508001B7C70127B685B6A9A4201D0012300E000234D
S31508001B8C18461837BD4680BD00100240007000404C
S31508001B9C6000424280B584B000AF786039607B68DB
S31508001BAC002B01D10123D0E06A4B1B6803F0070315
S31508001BBC3A689A4210D9674B1B6823F007026549A5
S31508001BCC3B6813430B60634B1B6803F007033A68C7
S31508001BDC9A4201D00123B8E07B681B6803F0020324
S31508001BEC002B20D07B681B6803F00403002B05D060
S31508001BFC594B5B68584A43F4E06353607B681B682F
S31508001C0C03F00803002B05D0534B5B68524A43F488
S31508001C1C60535360504B5B6823F0F0027B689B68FB
S31508001C2C4D4913434B607B681B6803F00103002B7B
S31508001C3C40D07B685B68012B07D1474B1B6803F4C4
S31508001C4C0033002B15D101237FE07B685B68022BE0
S31508001C5C07D1414B1B6803F00073002B09D10123F4
S31508001C6C73E03D4B1B6803F00203002B01D10123E3
S31508001C7C6BE0394B5B6823F003027B685B6836497B
S31508001C8C13434B60FFF78AF8F8600AE0FFF786F80B
S31508001C9C0246FB68D31A41F28832934201D90323D0
S31508001CAC53E02D4B5B6803F00C027B685B689B006A
S31508001CBC9A42EBD1274B1B6803F007033A689A4202
S31508001CCC10D2244B1B6823F0070222493B681343A6
S31508001CDC0B60204B1B6803F007033A689A4201D045
S31508001CEC012332E07B681B6803F00403002B08D041
S31508001CFC194B5B6823F4E0627B68DB68164913436F
S31508001D0C4B607B681B6803F00803002B09D0124B49
S31508001D1C5B6823F460527B681B69DB000E4913432E
S31508001D2C4B6000F021F801460B4B5B681B0903F06E
S31508001D3C0F030A4AD35C21FA03F3094A1360094BC9
S31508001D4C1B681846FEF7E8FF002318461037BD46F1
S31508001D5C80BD00BF00200240001002408425000808
S31508001D6C000000200800002090B48AB000AF2A4B6F
S31508001D7C3C1D0FCB84E80F00284B1B883B800023A7
S31508001D8CFB610023BB6100237B6200237B6100237C
S31508001D9C3B62234B5B68FB61FB6903F00C03042B6A
S31508001DAC02D0082B03D02DE01E4B3B622DE0FB69BD
S31508001DBC9B0C03F00F0307F12802134413F8243C79
S31508001DCC7B61FB6903F48033002B13D0144B5B68DF
S31508001DDC5B0C03F0010307F12802134413F8283CA3
S31508001DECBB617B690F4A02FB03F2BB69B2FBF3F3D7
S31508001DFC7B6204E07B690C4A02FB03F37B627B6A19
S31508001E0C3B6202E0074B3B6200BF3B6A1846283729
S31508001E1CBD4690BC704700BF702500088025000899
S31508001E2C0010024000127A0000093D0080B400AF91
S31508001E3C024B1B681846BD4680BC70470000002044
S31508001E4C80B500AFFFF7F2FF0146054B5B681B0A2E
S31508001E5C03F00703034AD35C21FA03F3184680BD43
S31508001E6C001002409425000880B500AFFFF7DEFF8E
S31508001E7C0146054B5B68DB0A03F00703034AD35C90
S31508001E8C21FA03F3184680BD001002409425000879
S31508001E9C80B485B000AF78600A4B1B680A4AA2FB6F
S31508001EAC03235B0A7A6802FB03F3FB6000BFFB683B
S31508001EBC5A1EFA60002BF9D100BF1437BD4680BCF8
S31508001ECC704700BF00000020D34D621080B582B069
S31508001EDC00AF78607B68002B01D101233FE07B685B
S31508001EEC93F83930DBB2002B06D17B68002283F8D5
S31508001EFC38207868FEF726FC7B68242283F839207C
S31508001F0C7B681B68DA687B681B6822F40052DA6007
S31508001F1C786800F0B1F97B681B681A697B681B68DE
S31508001F2C22F490421A617B681B685A697B681B68A5
S31508001F3C22F02A025A617B681B68DA687B681B6880
S31508001F4C42F40052DA607B680022DA637B6820224E
S31508001F5C83F839207B68202283F83A200023184618
S31508001F6C0837BD4680BD80B588B002AFF860B96049
S31508001F7C3B601346FB8000237B61FB6893F8393082
S31508001F8CDBB2202B40F08380BB68002B02D0FB8889
S31508001F9C002B01D101237BE0FB6893F83830012B29
S31508001FAC01D1022374E0FB68012283F83820FB6810
S31508001FBC0022DA63FB68212283F83920FEF7EEFE4D
S31508001FCC7861FB68FA889A84FB68FA88DA8442E0B6
S31508001FDCFB68DB8C9BB2013B9AB2FB68DA84FB6824
S31508001FEC9B68B3F5805F22D13B6800937B6900221E
S31508001FFC8021F86800F0F6F80346002B01D003237D
S3150800200C46E0BB683B613B691B881A46FB681B6844
S3150800201CC2F308025A60FB681B69002B03D1BB6824
S3150800202C0233BB6017E0BB680133BB6013E03B6847
S3150800203C00937B6900228021F86800F0D3F80346E8
S3150800204C002B01D0032323E0BB685A1CBA601A780C
S3150800205CFB681B685A60FB68DB8C9BB2002BB7D1FC
S3150800206C3B6800937B6900224021F86800F0BAF8B7
S3150800207C0346002B01D003230AE0FB68202283F8D1
S3150800208C3920FB68002283F83820002300E002235D
S3150800209C18461837BD4680BD80B588B002AFF860C3
S315080020ACB9603B601346FB8000237B61FB6893F8A1
S315080020BC3A30DBB2202B40F09080BB68002B02D064
S315080020CCFB88002B01D1012388E0FB6893F8383094
S315080020DC012B01D1022381E0FB68012283F8382009
S315080020ECFB680022DA63FB68222283F83A20FEF7A3
S315080020FC55FE7861FB68FA889A85FB68FA88DA8552
S3150800210C5CE0FB68DB8D9BB2013B9AB2FB68DA8517
S3150800211CFB689B68B3F5805F2BD13B6800937B69A2
S3150800212C00222021F86800F05DF80346002B01D048
S3150800213C032353E0BB683B61FB681B69002B0CD17E
S3150800214CFB681B685B689BB2C3F308039AB23B69CE
S3150800215C1A80BB680233BB6030E0FB681B685B689F
S3150800216C9BB2DBB29AB23B691A80BB680133BB607F
S3150800217C24E03B6800937B6900222021F86800F074
S3150800218C31F80346002B01D0032327E0FB681B69B3
S3150800219C002B08D1FB681B685968BB685A1CBA60C7
S315080021ACCAB21A700AE0FB681B685B68DAB2BB68CD
S315080021BC591CB96002F07F02D2B21A70FB68DB8D2B
S315080021CC9BB2002B9DD1FB68202283F83A20FB6832
S315080021DC002283F83820002300E00223184618371B
S315080021ECBD4680BD80B584B000AFF860B9603B6071
S315080021FC1346FB712CE0BB69B3F1FF3F28D0BB69D2
S3150800220C002B07D0FEF7CAFD02463B68D31ABA69FB
S3150800221C9A421DD2FB681B68DA68FB681B6822F4B5
S3150800222CD072DA60FB681B685A69FB681B6822F077
S3150800223C01025A61FB68202283F83920FB682022A8
S3150800224C83F83A20FB68002283F8382003230FE032
S3150800225CFB681B681A68BB681340BA689A420CBFBD
S3150800226C01230023DBB21A46FB799A42C3D000231A
S3150800227C18461037BD4680BD80B584B000AF78606F
S3150800228C7B681B681B6923F440517B68DA687B689A
S3150800229C1B680A431A617B689A687B681B691A4330
S315080022AC7B685B691343FB607B681B68DB6823F4FC
S315080022BCB05323F00C037A681268F9680B43D360A1
S315080022CC7B681B685B6923F440717B689A697B6839
S315080022DC1B680A435A617B681B68524A93424ED163
S315080022ECFFF7C2FDB860BA6813469B0013449A0000
S315080022FC1A447B685B689B00B2FBF3F34A4AA2FB61
S3150800230C03235B091901BA6813469B0013449A0008
S3150800231C1A447B685B689B00B2FBF3F2424BA3FB47
S3150800232C02035B09642000FB03F3D31A1B01323347
S3150800233C3D4AA2FB03235B0903F0F0031944BA6870
S3150800234C13469B0013449A001A447B685B689B00EF
S3150800235CB2FBF3F2344BA3FB02035B09642000FBCC
S3150800236C03F3D31A1B0132332F4AA2FB03235B094F
S3150800237C03F00F027B681B680A449A604DE0FFF76E
S3150800238C5FFDB860BA6813469B0013449A001A445A
S3150800239C7B685B689B00B2FBF3F3234AA2FB03231F
S315080023AC5B091901BA6813469B0013449A001A4430
S315080023BC7B685B689B00B2FBF3F21B4BA3FB020327
S315080023CC5B09642000FB03F3D31A1B013233164A4C
S315080023DCA2FB03235B0903F0F0031944BA681346FE
S315080023EC9B0013449A001A447B685B689B00B2FBFB
S315080023FCF3F20D4BA3FB02035B09642000FB03F30A
S3150800240CD31A1B013233084AA2FB03235B0903F0D8
S3150800241C0F027B681B680A449A6000BF1037BD46DA
S3150800242C80BD00BF003801401F85EB5170B50025F3
S3150800243C0C4E0D4CA41BA410A54209D100F022F891
S3150800244C00250A4E0A4CA41BA410A54205D170BD42
S3150800245C56F8253098470135EEE756F82530984753
S3150800246C0135F2E79C2500089C2500089C250008E8
S3150800247CA025000803460244934200D1704703F88E
S3150800248C011BF9E7F8B500BFF8BC08BC9E467047B7
S3110800249CF8B500BFF8BC08BC9E467047A7
S315080024A80A0D5374617274696E6720626F6F746C73
S315080024B86F616465722E2E2E0A0D00000A0D546986
S315080024C86D656F757421204A756D70696E6720741D
S315080024D86F206170706C69636174696F6E2E2E2E39
S315080024E80A0D00000A0D57616974696E67206669E6
S315080024F8726D776172652E2E2E0A0D000A0D5469C3
S315080025086D656F7574210A0D000000000A0D4A757D
S315080025186D70696E6720746F206170706C6963618D
S3150800252874696F6E2E2E2E0A0D0000000A0D466974
S31508002538726D776172652075706461746564210AC5
S315080025480D0000004A756D70696E6720746F2075F6
S31508002558736572206170706C69636174696F6E2E39
S315080025682E2E0A0D000000000203040506070809B6
S315080025780A0B0C0D0E0F10100102000000000000D7
S31508002588000000000102030406070809000000000D
S309080025980102030427
S3090800259C31010008F3
S309080025A00D01000813
S315080025A40024F400010000001000000001000000EF
S70508000C7175
